:100000000C942A000C9447000C9447000C94470071
:100010000C9447000C9447000C9447000C943E0548
:100020000C9447000C9447000C9447000C94470034
:100030000C9447000C9447000C9447000C94470024
:100040000C9447000C9447000C9447000C94470014
:100050000C94470011241FBECFE5D8E0DEBFCDBF12
:1000600010E0A0E6B0E0EEE0F7E202C005900D92ED
:10007000A837B107D9F714E0A8E7B0E001C01D9296
:10008000A639B107E1F70E9489000C9485130C94FE
:1000900000008F9A8E9A8D9AD0E2C0E48091780009
:1000A0009091790063E070E041E020E008EE13E019
:1000B0000E94DC008130910521F482B3805882BB1C
:1000C000EDCF8230910521F482B38C2782BBE6CF3D
:1000D0008330910519F782B38D2782BBDFCF80ED86
:1000E00097E00E94670E809178009091790062E01D
:1000F00070E00E945B01F3CF88E893E10E94670EF5
:10010000809178009091790061E070E00E945B013D
:10011000F3CF8CE790E060E670E044E650E020E04A
:1001200030E003E0EE24FF240E94080A8FE690E00E
:1001300065E670E044E650E020E030E002E00E9436
:10014000080A89E490E06AE670E048EC50E020E0BC
:1001500030E001E00E94080A0E94C80090937900F4
:10016000809378000E94A10CFFCF442341F46823C0
:10017000792381E06115710551F480E008959B01B8
:100180002823392381E06217730709F080E008957E
:10019000CF93DF938BE090E00E945E02EC0100972A
:1001A00031F0FC0111921192CF010E9437038C2F84
:1001B0009D2FDF91CF910895AF92BF92CF92DF92A2
:1001C000EF92FF920F931F93CF93DF935C016B012C
:1001D000E42EF22E0E94D10CF501C081D181CE0116
:1001E000B6014F2D0E94B500882351F0EE2001F199
:1001F000C094D094CC22DD22F501D182C08218C0F7
:1002000001151105A9F0EE2019F460E070E002C0BC
:1002100060E071E0F11074606C297D29C5010296DF
:10022000A8010E94770F0E94AF0D882339F404C003
:100230000E94AF0DCE0121C00E9488040E94FD10D3
:10024000EC0191FD18C00FB6F8940F92F501C08132
:10025000D181CE01B6014F2D0E94B500882349F00F
:10026000EE2039F0C094D094CC22DD22F501D18269
:10027000C0820F900FBECE019070DF91CF911F9181
:100280000F91FF90EF90DF90CF90BF90AF900895C7
:10029000FC010FB6F8940F92808191816095709562
:1002A00068237923718360830F900FBE0895FC014A
:1002B000808191810895AF92BF92CF92DF92EF92A9
:1002C000FF920F931F93CF93DF938C01EB010F2EBF
:1002D000F5E0CF2EDD24F02DC80ED91E0E94D10CE2
:1002E000D8011796ED91FC9118978D919C911197DB
:1002F0008C2B9D2B11969C938E93CE16DF06C1F10D
:10030000AA24BB24FF24F394EE2401C0FE01C28181
:10031000D38180819181BC0160709C01307092FD1D
:100320000BC0D8018D919C911197822393234F2D5F
:10033000009769F44E2D0BC0D8018D919C911197B7
:10034000822393234F2D2817390709F04E2D44237C
:1003500059F070FF02C0A22AB32AD8016D917C9196
:100360007260CF010E94DB0FCC16DD0679F602C069
:10037000AA24BB24C50180959095F801A080B18086
:10038000A822B922B182A0820E94AF0DD8018C911F
:1003900011969C911197DF91CF911F910F91FF9032
:1003A000EF90DF90CF90BF90AF900895AF92BF9243
:1003B000CF92DF92EF92FF920F931F93CF93DF9331
:1003C0006C01EB017A0159010E94D10CF601008108
:1003D0001181C601BE010E945B01C02BD12BC70158
:1003E0008C239D238E159F0551F480959095F601E1
:1003F00020813181822393239183808312C0A114B1
:10040000B10461F0B7017560C6010296A5010E94B2
:10041000770F0E94AF0D882349F406C0F601C08112
:10042000D1810E94AF0D1CC00E9488040E94FD1063
:1004300091FD14C00FB6F8940F92F601808191815E
:100440009701282339232E153F0531F42095309547
:1004500028233923318320830F900FBEEC01D07005
:100460008C2F9D2FDF91CF911F910F91FF90EF90D7
:10047000DF90CF90BF90AF900895CF93DF93EC01C2
:100480000E94D10C8A81882349F08F81988560E091
:1004900072E00E94DB0F8A818823B9F7CE010E94A7
:1004A000FE020E94AF0DDF91CF910895BA010E9424
:1004B0005B010895BA010E94480108950F931F93AC
:1004C000CF93DF93EC010E94D10C80917A008823B6
:1004D000F9F484E890E090937C0080937B00109284
:1004E0007E0010927D0083E893E0909382008093D9
:1004F0008100E1E8F0E012921292909387008093DD
:100500008600F0938500E093840081E080937A0078
:10051000209709F462C09E012C5F3F4F239683E031
:10052000C238D80708F05CC0E0917B00F0917C00F5
:10053000ABE7B0E002C0DF01FC018281938182174A
:10054000930720F4808191810097A9F7C0E0EF37ED
:10055000FC0709F448C08D919C9111978C010C5FA8
:100560001F4F8081918111969C938E9382819381FC
:10057000821B930B8930910518F1AF01420F531F75
:10058000DA0113969C938E931297338322831296EB
:100590002D913C9113976BE770E001C0BD01EB0119
:1005A000A881B98112968D919C9113978217930718
:1005B000A8F3EA01B983A883DB0111965C934E93FB
:1005C000809171009091720022813381821B930B84
:1005D000909372008093710008C000E010E005C0A5
:1005E00000E010E002C000E010E00E94AF0D802F9C
:1005F000912FDF91CF911F910F9108950F931F932A
:10060000CF93DF93EC01009739F18C010450104037
:100610000E94D10CF80122813381ABE7B0E001C028
:10062000DF01ED91FC9111978281938182179307ED
:10063000B8F32497F983E8830D931C93809171009C
:10064000909172002A813B81820F931F90937200D8
:10065000809371000E94AF0DDF91CF911F910F9198
:100660000895809171009091720008950895FC01A1
:100670000396928381832FEF3FEF34832383968306
:1006800085839087878310820895FC0111861086E8
:100690000895CF93DF93FB01DC011196CD91DC919E
:1006A0001297D383C2832C813D8135832483AC810F
:1006B000BD8113967C936E9312977D836C83918793
:1006C0008087FC0120812F5F2083DF91CF910895E7
:1006D000CF93DF93AC01EB01288139818FEF2F3F5E
:1006E000380721F4FA01A781B0850DC0DA0113960D
:1006F00001C0DF011296ED91FC91139780819181E9
:1007000028173907B0F71296ED91FC911397FB83E8
:10071000EA83D583C483BD83AC831396DC93CE93E5
:10072000129759874887FA0180818F5F8083DF9114
:10073000CF910895CF93DF93FC01C085D185A2812D
:10074000B3818481958115969C938E931497A4818F
:10075000B5818281938113969C938E931297A98180
:10076000BA81AE17BF0731F414968D919C911597FD
:100770009A83898311861086888181508883DF91CE
:10078000CF91089521E1FC012083319732E230833B
:10079000FC013297A3E3A083FC0133976083FC0143
:1007A00034977083FC0135971082FC01369760E81E
:1007B0006083FC0137971082FC01389762E0608308
:1007C000FC01399763E06083FC013A9764E0608341
:1007D000FC013B9765E06083FC013C9766E0608329
:1007E000FC013D9767E06083FC013E9768E0608311
:1007F000FC013F9769E06083FC01709760E16083D2
:10080000FC0171972083FC01729722E12083FC0197
:10081000739723E12083FC01749724E12083FC017A
:10082000759725E12083FC01769726E12083FC0162
:10083000779727E12083FC01789728E12083FC014A
:10084000799729E12083FC017A9720E22083FC013B
:100850007B9721E22083FC017C973083FC017D970C
:1008600023E22083FC017E974083FC017F97508325
:10087000FC01B09726E22083FC01B19727E2208398
:10088000FC01B29728E22083FC01B39729E2208380
:10089000FC01B49720E32083FC01B59721E320837A
:1008A000869708951BBC8CE78ABD8BE08EBD89B707
:1008B000806189BFA0910704B0910804CD91CDBF9C
:1008C000DD91DEBFFF91EF91DF91CF91BF91AF91AD
:1008D0009F918F917F916F915F914F913F912F9158
:1008E0001F910F91FF90EF90DF90CF90BF90AF904E
:1008F0009F908F907F906F905F904F903F902F9040
:100900001F900F900FBE0F90089581E008950895F5
:100910000F920FB6F8940F921F9211242F923F92CC
:100920004F925F926F927F928F929F92AF92BF92FF
:10093000CF92DF92EF92FF920F931F932F933F93EB
:100940004F935F936F937F938F939F93AF93BF93D7
:10095000CF93DF93EF93FF93A0910704B091080426
:100960000DB60D920EB60D920E94BA0EA09107041C
:10097000B0910804CD91CDBFDD91DEBFFF91EF9125
:10098000DF91CF91BF91AF919F918F917F916F91A7
:100990005F914F913F912F911F910F91FF90EF9099
:1009A000DF90CF90BF90AF909F908F907F906F908F
:1009B0005F904F903F902F901F900F900FBE0F9021
:1009C00008950F920FB6F8940F921F9211242F9250
:1009D0003F924F925F926F927F928F929F92AF92CF
:1009E000BF92CF92DF92EF92FF920F931F932F93BC
:1009F0003F934F935F936F937F938F939F93AF93A7
:100A0000BF93CF93DF93EF93FF93A0910704B0912F
:100A100008040DB60D920EB60D920E94F10C8823BB
:100A200011F00E94BA0EA0910704B0910804CD9174
:100A3000CDBFDD91DEBFFF91EF91DF91CF91BF91EF
:100A4000AF919F918F917F916F915F914F913F9166
:100A50002F911F910F91FF90EF90DF90CF90BF905B
:100A6000AF909F908F907F906F905F904F903F904E
:100A70002F901F900F900FBE0F9008950E94E104D9
:100A800018950FB6F8940F92FC01928D0F900FBE3F
:100A900081E0911180E00895FC01448D4423C1F070
:100AA00026813781240F311D37832683A281B381AC
:100AB0002A173B0720F02081318137832683368136
:100AC0002781862F972F632F722F50E00E947C136F
:100AD0000895EF92FF920F931F93CF938C010FB65F
:100AE000F8940F92FC01C68D1C16CCF481898823E2
:100AF00031F415C0F8018189882341F410C00F2E0C
:100B0000F1E1EF2EFF24F02DE00EF11EC7010E944F
:100B1000900F882311F00E945510C15059F78FEFA4
:100B2000F801868F0F900FBE0FB6F8940F92F80160
:100B3000C58D1C16C4F48085882331F414C0F801D7
:100B40008085882339F40FC0EE24FF246894E3F8ED
:100B5000E00EF11EC7010E94900F882311F00E9441
:100B60005510C15061F78FEFF801858F0F900FBEC0
:100B7000CF911F910F91FF90EF9008950F931F93C6
:100B8000CF93DF93EC01142F0A8D4C8D442361F435
:100B900088819981009709F042C08A819B810E94D7
:100BA000BC101B821A8242C01123B9F48C819D8132
:100BB00050E00E947C132C8D8C819D81820F911DB1
:100BC0009D838C832A813B818217930750F1888112
:100BD00099819D838C8380E029C08E819F8150E024
:100BE0000E947C134C8D50E0509541955F4F8E8153
:100BF0009F81840F951F9F838E832881398182175F
:100C0000930730F48A819B81840F951F9F838E8385
:100C1000123049F4002349F0015080E007C080E021
:100C200005C080E003C080E001C080E00F5F0A8F54
:100C3000DF91CF911F910F910895CF93DF93EC0136
:100C40000FB6F8940F92488159812B8D30E0EC8DCE
:100C5000F0E02E9FC0012F9F900D3E9F900D11241C
:100C6000840F951F9B838A831A8E5D834C83C901F1
:100C70000197E89F9001E99F300DF89F300D1124F6
:100C8000240F351F3F832E838FEF8D8F8E8F66232A
:100C900061F48885882389F0CE0108960E94900F20
:100CA000882359F00E94880408C0CE0108960E944B
:100CB0003703CE0141960E9437030F900FBE81E0AB
:100CC000DF91CF9108950F931F93CF93DF93082F58
:100CD000162F662321F0689FC001112402C080E016
:100CE00090E04F960E945E02EC01009771F0112394
:100CF00019F49983888303C04F96998388830B8F57
:100D00001C8FCE0161E00E941D068C2F9D2FDF916C
:100D1000CF911F910F9108958F929F92BF92CF9282
:100D2000DF92EF92FF920F931F93CF93DF9300D048
:100D300000D00F92CDB7DEB78C014B015D834C83A1
:100D4000E22EFF24BB24B394CC24DD246894C3F8A2
:100D5000C80ED91E0FB6F8940F92F801928D838DAC
:100D6000981718F0F2E0EF16D1F4C801B4014E2D37
:100D70000E94BE05F8019189992349F0C801419666
:100D80000E94900F882339F00E94880404C08823B1
:100D900011F00E9488040F900FBE81E052C08C8138
:100DA0009D81009721F40F900FBE80E04AC0FF2084
:100DB00029F4CE0101960E941510FB2C0F900FBE56
:100DC0000E94D10C0FB6F8940F92F801858D8F3FD9
:100DD00009F4158EF801868D8F3F09F4168E0F9059
:100DE0000FBECE010196BE016C5F7F4F0E942010A6
:100DF000882309F50FB6F8940F92F801928D0F90A1
:100E00000FBEF801838D981781F46C817D81C60136
:100E10000E94650FC8010E9469050E94AF0D8823DA
:100E200009F098CF0E94880495CFC8010E946905F7
:100E30000E94AF0D8FCFC8010E9469050E94AF0DBF
:100E400080E00F900F900F900F900F90DF91CF9157
:100E50001F910F91FF90EF90DF90CF90BF909F90E8
:100E60008F900895CF93DF93482F81E060E00E9438
:100E70006306EC01009761F01B821A8219821882C6
:100E80001E8260E070E040E050E020E00E948C06AE
:100E90008C2F9D2FDF91CF910895EF92FF920F93AA
:100EA0001F93CF938C017A01FC01928D838D98174B
:100EB00010F02230F1F4F801C68DC801422F0E94D3
:100EC000BE05CF3F89F4F80181898823A1F0C801CC
:100ED00041960E94900F882381F0E114F10479F08B
:100EE00081E0F70180830CC0CF5FF801C68F81E0FD
:100EF00007C080E005C081E003C081E001C081E05F
:100F0000CF911F910F91FF90EF900895CF93DF93B2
:100F1000FC01EB01828D938D8917B8F4968D8F5F5C
:100F2000828F9F3F71F48189882389F0CF01419698
:100F30000E94900F882369F0209769F081E08883F0
:100F40000BC09F5F968F81E007C080E005C081E005
:100F500003C081E001C081E0DF91CF9108958F92BD
:100F60009F92AF92BF92CF92DF92EF92FF920F9338
:100F70001F93CF93DF9300D000D00F92CDB7DEB791
:100F80007C014B015D834C83C22E00E0DD24D394B1
:100F90000F2EF1E1AF2EBB24F02DA80EB91E0FB617
:100FA000F8940F92F701128D112399F1A680B78062
:100FB000C701B4010E944C05CC20C9F41150F701BF
:100FC000128F80819181009729F40E941511F701F9
:100FD00093838283F70180858823B9F0C70108963F
:100FE0000E94900F882389F00E9488040EC0F701A8
:100FF000B782A6828189882341F0C70141960E9469
:10100000900F882311F00E9488040F900FBE81E09A
:1010100061C08C819D81009721F40F900FBE80E00C
:1010200059C0002329F4CE0101960E9415100D2D00
:101030000F900FBE0E94D10C0FB6F8940F92F701DB
:10104000858D8F3F09F4158EF701868D8F3F09F44A
:10105000168E0F900FBECE010196BE016C5F7F4FC2
:101060000E942010882351F5C7010E944105882362
:10107000F9F0F70180819181009751F40FB6F8944F
:101080000F92F701828193810E945E100F900FBE34
:101090006C817D81C5010E94650FC7010E946905B1
:1010A0000E94AF0D882309F07ACF0E94880477CF81
:1010B000C7010E9469050E94AF0D71CFC7010E9450
:1010C00069050E94AF0DC7010E944105882309F4FC
:1010D00066CF80E00F900F900F900F900F90DF91F0
:1010E000CF911F910F91FF90EF90DF90CF90BF9025
:1010F000AF909F908F900895EF92FF920F931F9360
:10110000CF93DF938C017A01FC01C28DCC23E9F0EF
:10111000D58D0E944C05C150F801C28FDF3F81F48C
:1011200080858823A1F0C80108960E94900F88232B
:1011300081F0E114F10479F081E0F70180830CC0C3
:10114000DF5FF801D58F81E007C080E005C081E056
:1011500003C081E001C081E0DF91CF911F910F9129
:10116000FF90EF9008950F931F93CF93DF93EC01BF
:101170008A8D882349F00E811F81CE010E944C0583
:101180001F830E8381E001C080E0DF91CF911F912A
:101190000F9108950FB6F8940F92FC01828D0F9075
:1011A0000FBE0895FC010FB6F8940F92928D0F9028
:1011B0000FBE838D891B0895FC01828D0895FC016B
:1011C000928D81E0911180E00895FC01228D81E0F3
:1011D000938D291380E00895DC018091760490912D
:1011E0007704009751F0EAE7F4E021E030E0A9014C
:1011F00080819181009779F402C040E050E0FA01CB
:10120000EE0FFF1FEE0FFF1FEA58FB4F7183608345
:10121000B383A28308952F5F3F4F34962830310562
:1012200031F70895AC018091780490917904841786
:10123000950759F0ECE7F4E021E030E0B901808156
:1012400091818417950769F402C060E070E0FB01AA
:10125000EE0FFF1FEE0FFF1FEA58FB4F80819181B9
:1012600008952F5F3F4F34962830310539F780E0DD
:1012700090E00895AC0180917804909179048417EE
:10128000950759F0ECE7F4E021E030E0B901808106
:1012900091818417950779F402C060E070E0FB014A
:1012A000EE0FFF1FEE0FFF1FEA58FB4F1182108257
:1012B0001382128208952F5F3F4F349628303105F4
:1012C00029F70895CF93DF93EC010E943A09CE01EC
:1012D0000E94FE02DF91CF910895FC0182859385E3
:1012E00024E08B36920761F42489358984E029351E
:1012F000380741F081E02115310529F080E008959B
:1013000080E0089580E00895E0911704F0911804BA
:101310008081882339F48FEF9FEF90930B048093A3
:101320000A040895E0911704F09118040580F681ED
:10133000E02D0680F781E02D8281938190930B044C
:1013400080930A040895EF92FF921F93CF93DF9347
:10135000EC01162FE0901104F09012048091070424
:101360009091080402960E949A038FEFCF3FD8070E
:1013700069F4112359F060910704709108046E5FBD
:101380007F4F8BE694E00E9449032FC0CE0DDF1DF6
:10139000E0910704F0910804D383C283CE15DF05E2
:1013A00068F480911504909116046091070470917F
:1013B00008046E5F7F4F0E94680317C08091170476
:1013C0009091180460910704709108046E5F7F4F3C
:1013D0000E94680380910A0490910B04C817D907F2
:1013E00020F4D0930B04C0930A04DF91CF911F9196
:1013F000FF90EF900895CF93DF93EC018F89988D44
:101400000E94FE02CE010E94FE02DF91CF9108955C
:101410002F923F924F925F926F927F928F929F9204
:10142000AF92BF92DF92EF92FF920F931F93CF93F1
:10143000DF933C015B01EA012901D02E4701CA017B
:101440000E945E027C01009709F4EDC08AE290E000
:101450000E945E028C01009781F0FC01F08EE78A09
:10146000219717012C0E3D1EF5018081F801818F17
:10147000F5018081882331F413C0C7010E94FE0268
:101480008FEFD6C0E8016A96D501119681E0FD0183
:101490009D9199939081992319F08F5F8A30B9F7C4
:1014A000F80112A2CD2DC53008F0C4E0F801C68BBA
:1014B000C3A314A2EE24FF246894E1F8E00EF11E09
:1014C000C7010E944503C8010C960E944503F8011C
:1014D0001187008785E090E08C1B910995878487B0
:1014E000138B028B15A216A217A210A611A6C1017A
:1014F000B301A2010E94C203F80191838083811489
:10150000910419F0F401118300830FB6F8940F923F
:10151000809113048F5F809313048091070490914E
:101520000804009709F03FC01093080400930704D3
:1015300080911304813009F047C0C0E0D0E0CE01B3
:10154000880F991F880F991F880F991F8C0F9D1F57
:10155000865E9B4F0E9437032196C530D10579F7EF
:10156000C7E4D4E0CE010E9437030F2EF0E5AF2E82
:10157000F4E0BF2EF02DC5010E94370389E594E009
:101580000E94370382E694E00E9437038BE694E0E2
:101590000E943703D0931804C0931704B092160426
:1015A000A092150411C080910F04882369F4E09182
:1015B0000704F09108049689F8018689891720F0BC
:1015C0001093080400930704809119048F5F80939F
:1015D0001904F801868990911004981710F48093EB
:1015E000100490E09C01220F331F220F331F220FA3
:1015F000331F820F931F865E9B4FB7010E944903E2
:101600000F900FBE80910F04882379F0E0910704BA
:10161000F09108049689F8018689981740F40E9491
:10162000880481E005C08FEF03C081E001C081E044
:10163000DF91CF911F910F91FF90EF90DF90BF90BE
:10164000AF909F908F907F906F905F904F903F9062
:101650002F9008950F931F93CF93DF930FB6F894B5
:101660000F92009729F4C0910704D091080401C09B
:10167000EC018E010E5F1F4FC8010E949A038C89F6
:101680009D89009721F0CE010C960E949A038091CB
:1016900019048F5F809319048091070490910804C6
:1016A000C817D90759F482E694E0B8010E944903AB
:1016B000809114048F5F809314040AC080911304F6
:1016C000815080931304CE010E94FB090E9484097B
:1016D0000F900FBE80910F04882349F0809107047A
:1016E00090910804C817D90711F40E948804DF916B
:1016F000CF911F910F9108950FB6F8940F92009714
:1017000029F4E0910704F091080401C0FC010F9056
:101710000FBE86890895009729F4E0910704F0919F
:10172000080401C0FC0186890895EF92FF921F937F
:10173000CF93DF93653008F064E00FB6F8940F9212
:10174000009729F4C0910704D091080401C0EC016E
:101750002BA1261709F461C0261788F4809107048D
:1017600090910804C817D907A1F0E0910704F091FF
:10177000080411E08689681768F410E00BC08091B6
:1017800007049091080411E0C817D90719F010E078
:1017900001C010E08E89281709F46E8B6BA32C858D
:1017A0003D85332334F025E030E0261B31093D87A9
:1017B0002C8790E09C01220F331F220F331F220F32
:1017C000331F820F931F865E9B4F2A853B85281708
:1017D0003907F9F4EE24FF246894E1F8EC0EFD1EBD
:1017E000C7010E949A038E8990911004981710F4F3
:1017F0008093100490E09C01220F331F220F331FAF
:10180000220F331F820F931F865E9B4FB7010E94EA
:101810004903112311F00E9488040F900FBEDF913D
:10182000CF911F91FF90EF9008950F931F93CF9347
:10183000DF93EC010097B9F18091070490910804BF
:10184000C817D90781F10FB6F8940F92CE010E9404
:101850006D09882331F18E010E5F1F4FC8010E9470
:101860009A038E8990911004981710F480931004B5
:1018700090E09C01220F331F220F331F220F331FD2
:10188000820F931F865E9B4FB8010E944903E0912F
:101890000704F09108049E898689981710F00E9429
:1018A00088040F900FBEDF91CF911F910F91089583
:1018B000EF92FF921F93CF93DF93EC010E946D098B
:1018C0008823B9F180910904882351F5E091070438
:1018D000F091080411E09E898689981708F410E0B9
:1018E000EE24FF246894E1F8EC0EFD1EC7010E946F
:1018F0009A038E8990911004981710F48093100425
:1019000090E09C01220F331F220F331F220F331F41
:10191000820F931F865E9B4FB7010E9449030AC046
:10192000BE01645F7F4F89E594E00E94490310E0A7
:1019300001C010E0812FDF91CF911F91FF90EF90B8
:101940000895EF92FF920F938FE29EE063E770E0BD
:1019500048EC50E020E030E000E00F2EF4E7EF2EFE
:10196000F4E0FF2EF02D0E94080A813081F4F894F3
:101970008FEF9FEF90930B0480930A0481E0809394
:101980000F0410921204109211040E9452040F913D
:10199000FF90EF900895F89410920F040E9487042E
:1019A0000895809109048F5F8093090408950FB60C
:1019B000F8940F9280911104909112040F900FBE31
:1019C0000895809111049091120408958091130458
:1019D0000895009721F48091070490910804499696
:1019E0000895CF92DF92EF92FF920F931F93CF93C0
:1019F000DF9380910904882309F098C0C0901104F6
:101A0000D09012040894C11CD11CD0921204C09230
:101A10001104C114D104B9F48091170490911804F1
:101A20002091150430911604309318042093170464
:101A3000909316048093150480910C048F5F80931B
:101A40000C040E94840980910A0490910B04C8162A
:101A5000D90620F4FF2454C0FE2C03C0FF24EE243A
:101A6000E394E0911704F09118048081882339F4FD
:101A70008FEF9FEF90930B0480930A0441C0E09195
:101A80001704F09118040580F681E02DC681D781F6
:101A90008A819B81C816D90628F490930B04809301
:101AA0000A042EC08E010E5F1F4FC8010E949A03C8
:101AB0008C899D89009721F0CE010C960E949A0393
:101AC0008E8990911004981710F48093100490E080
:101AD0009C01220F331F220F331F220F331F820F4F
:101AE000931F865E9B4FB8010E944903E091070453
:101AF000F09108049E898689981708F0ADCFB1CF80
:101B0000E0910704F0910804868990E0FC01EE0F53
:101B1000FF1FEE0FFF1FEE0FFF1F8E0F9F1FFC0119
:101B2000E65EFB4F8081823040F409C080910E0454
:101B30008F5F80930E04FF2402C0FF24F3948091F2
:101B40000D04882311F0FF24F3948F2DDF91CF91A2
:101B50001F910F91FF90EF90DF90CF900895DF924B
:101B6000EF92FF920F931F93CF93DF930FB6F894EA
:101B70000F92809109048150809309048091090497
:101B8000882309F05FC080911304882391F55DC01C
:101B9000E0915E04F0915F04C681D781CE010C967E
:101BA0000E949A038E010E5F1F4FC8010E949A0384
:101BB0008E8990911004981710F48093100490E08F
:101BC0009C01220F331F220F331F220F331F820F5E
:101BD000931F865E9B4FB8010E944903E091070462
:101BE000F09108049E898689981768F0D0920D04B8
:101BF0000AC0C0E0D0E00F2EF9E5EF2EF4E0FF2E92
:101C0000F02DDD24D394F7018081882309F62097F5
:101C100011F00E948409C0910E04CC2359F001E018
:101C20000E94F10C882311F000930D04C150C1F7FC
:101C300010920E0480910D04882331F00E948804D4
:101C400081E003C080E001C080E00F900FBEDF9113
:101C5000CF911F910F91FF90EF90DF90089502E6D2
:101C600014E00F2EFAE1EF2EF4E0FF2EF02D24C049
:101C70000E94D10CF801C0810E94AF0DCC23E1F08D
:101C80000FB6F8940F92E0916704F0916804C68152
:101C9000D781CE0102960E949A038091130481504D
:101CA00080931304809114048150809314040F9046
:101CB0000FBECE010E94FB09809114048823C1F657
:101CC000F70180818230C0F30E948804F5CFCF9362
:101CD000DF93EC01009751F00E94D10CCE0160E03F
:101CE0000E94A3090E94AF0D882311F40E9488046A
:101CF000DF91CF9108950F931F93CF93DF938C01C2
:101D0000EB010E94D10C8091110490911204F80112
:101D100020813181C20FD31F8217930748F4C21765
:101D2000D307F8F4D183C0838C179D0778F407C0DC
:101D3000C217D30790F08C179D0778F012C09E0150
:101D4000281B390BC90160E00E94A3090E94AF0D56
:101D5000882359F40E94880408C0F801D183C08305
:101D6000EECFF801D183C083F1CFDF91CF911F91E6
:101D70000F91089580910904882321F081E08093D8
:101D80000D04089510920D0420911004822F90E00C
:101D9000FC01EE0FFF1FEE0FFF1FEE0FFF1FE80FFE
:101DA000F91FE65EFB4F3081332389F42150822FE7
:101DB00090E0FC01EE0FFF1FEE0FFF1FEE0FFF1F65
:101DC000E80FF91FE65EFB4F3081332379F3DC0126
:101DD000AA0FBB1FAA0FBB1FAA0FBB1F8A0F9B1FF7
:101DE000DC01A65EBB4F1196ED91FC91129702802B
:101DF000F381E02D1296FC93EE931197CD0103969B
:101E0000E817F90731F48281938112969C938E939F
:101E100011971196ED91FC9112978681978190937D
:101E20000804809307042093100408950F931F93D0
:101E3000CF93DF930FB6F8940F92009729F4009197
:101E400007041091080401C08C01E8012296CE011C
:101E50000E949A03F80184899589009721F0C801AE
:101E60000C960E949A038BE694E0BE010E944903FF
:101E70000F900FBE80910F04882339F00FB6F894AD
:101E80000F920E9484090F900FBE809107049091D9
:101E9000080408171907A1F480910F04882319F08A
:101EA0000E9488040DC08091130490916B049817D0
:101EB00029F4109208041092070402C00E94BA0E7E
:101EC000DF91CF911F910F910895CF93DF93EB0195
:101ED0006091070470910804645F7F4F0E9468035B
:101EE000CE0161E00E94A309DF91CF910895CF93C5
:101EF000DF93EA01E0910704F091080470687587A8
:101F000064876091070470910804645F7F4F0E94AA
:101F10004903CE0161E00E94A309DF91CF910895AA
:101F20000F931F93CF93DF93DC011596ED91FC91F6
:101F3000169706811781E8012C96CE010E949A031C
:101F4000809109048823E9F4E8012296CE010E94D9
:101F50009A03F801868990911004981710F48093E1
:101F6000100490E09C01220F331F220F331F220F19
:101F7000331F820F931F865E9B4FBE010E94490351
:101F800005C089E594E0BE010E944903E091070481
:101F9000F0910804D80156969C9156978689891726
:101FA00020F481E080930D0401C080E0DF91CF91A7
:101FB0001F910F9108950F931F93CF93DF93706834
:101FC000FC0171836083C681D7810E949A038E01D0
:101FD0000E5F1F4FC8010E949A038E8990911004D2
:101FE000981710F48093100490E09C01220F331F87
:101FF000220F331F220F331F820F931F865E9B4FCA
:10200000B8010E944903E0910704F09108049E89F9
:102010008689891720F481E080930D0401C080E057
:10202000DF91CF911F910F910895FC0180910C04D5
:10203000808380911104909112049283818308958A
:10204000FC01DB010FB6F8940F92609111047091BE
:1020500012044D915C9111978FEF4F3F5807E9F0B3
:1020600080910C049081981729F0818192816817E2
:102070007907A8F4818192819B01281B390B2417D1
:10208000350778F4861B970B840F951F8D939C93CF
:10209000CF010E94151080E005C080E003C081E000
:1020A00001C081E00F900FBE089581E080930D0480
:1020B0000895809107049091080408950F931F9349
:1020C000CF93DF93EC01009709F451C08E89E09122
:1020D0000704F09108049689891708F048C02C85F8
:1020E0003D8533235CF0E0910704F0910804968964
:1020F00025E030E0291B31093D872C8790E09C01C9
:10210000220F331F220F331F220F331F820F931F03
:10211000865E9B4F2A853B852817390711F58E016E
:102120000E5F1F4FC8010E949A03E0910704F091CF
:10213000080486898E8B90911004981710F4809370
:10214000100490E09C01220F331F220F331F220F37
:10215000331F820F931F865E9B4FB8010E94490375
:1021600006C0E0910704F091080486898E8BDF9108
:10217000CF911F910F9108950F931F93CF93DF93EA
:10218000EC01009781F18CA181508CA32E899BA139
:10219000291759F1882359F58E010E5F1F4FC80189
:1021A0000E949A034BA14E8B242F30E085E090E0F3
:1021B000821B930B9D878C8780911004841710F4E9
:1021C00040931004C901880F991F880F991F880F29
:1021D000991F280F391FC901865E9B4FB8010E94C5
:1021E000490381E005C080E003C080E001C080E0D9
:1021F000DF91CF911F910F910895E0910704F09125
:10220000080484859585E0910704F0910804A09165
:102210000704B091080456964C91569725E030E09B
:10222000241B3109358724870895809107049091F4
:102230000804009739F0E0910704F091080484A1A4
:102240008F5F84A3809107049091080408950F93F1
:102250001F93CF93C82F0FB6F8940F92E091070405
:10226000F091080485A196A1A7A1B0A50097A105AA
:10227000B10579F4E0910704F091080481E081A7A9
:102280006115710531F0CB0161E00E94A3090E9444
:1022900088040F900FBE0FB6F8940F92E0910704D8
:1022A000F091080405A116A127A130A5011511057B
:1022B00021053105C1F0CC2349F0E0910704F091EC
:1022C000080415A216A217A210A60DC0E0910704DB
:1022D000F0910804D901C8010197A109B10985A3AA
:1022E00096A3A7A3B0A7E0910704F091080411A654
:1022F0000F900FBE602F712F822F932FCF911F91C0
:102300000F9108958F929F92AF92BF92EF92FF929A
:102310000F931F93DC01CB0149015A010FB6F894CA
:102320000F92E0910704F091080421A5223019F1E1
:10233000E0910704F091080445A156A167A170A59A
:1023400080959095A095B09584239523A623B723D7
:1023500085A396A3A7A3B0A7E0910704F091080472
:1023600081E081A7E114F10431F0C70161E00E942E
:10237000A3090E9488040F900FBE0FB6F8940F9225
:102380000115110569F0E0910704F091080485A199
:1023900096A1A7A1B0A5F80180839183A283B383FE
:1023A000E0910704F091080481A58130B1F0E0913B
:1023B0000704F091080485A196A1A7A1B0A5809477
:1023C0009094A094B09488229922AA22BB2285A23C
:1023D00096A2A7A2B0A681E001C080E0E091070428
:1023E000F091080411A60F900FBE1F910F91FF905E
:1023F000EF90BF90AF909F908F9008950F931F9391
:10240000CF93DF93EC010FB6F8940F9201151105ED
:1024100049F08DA19EA1AFA1B8A5F8018083918359
:10242000A283B38339A582E089A72230B9F0233093
:1024300018F4213051F505C02330E1F0243029F59E
:102440001EC08DA19EA1AFA1B8A5482B592B6A2B08
:102450007B2B4DA35EA36FA378A717C08DA19EA170
:10246000AFA1B8A50196A11DB11D8DA39EA3AFA3D9
:10247000B8A70BC04DA35EA36FA378A706C03230E8
:1024800071F14DA35EA36FA378A7313051F58E0192
:102490000E5F1F4FC8010E949A038E89909110040D
:1024A000981710F48093100490E09C01220F331FC2
:1024B000220F331F220F331F820F931F865E9B4F05
:1024C000B8010E944903E0910704F09108049E8935
:1024D0008689891740F40E94880481E005C080E065
:1024E00003C081E001C081E00F900FBEDF91CF916A
:1024F0001F910F910895EF92FF920F931F93CF9327
:10250000DF93EC010115110549F08DA19EA1AFA14A
:10251000B8A5F80180839183A283B38339A582E0B3
:1025200089A72230B9F0233018F4213059F505C0BD
:102530002330E1F0243031F51EC08DA19EA1AFA162
:10254000B8A5842B952BA62BB72B8DA39EA3AFA349
:10255000B8A718C08DA19EA1AFA1B8A50196A11DD5
:10256000B11D8DA39EA3AFA3B8A70CC04DA35EA3BE
:102570006FA378A707C0323009F441C04DA35EA312
:102580006FA378A73130E9F5809109048823E9F435
:102590008E010E5F1F4FC8010E949A038E89909191
:1025A0001004981710F48093100490E09C01220FFF
:1025B000331F220F331F220F331F820F931F865E9C
:1025C0009B4FB8010E94490307C0BE01645F7F4F63
:1025D00089E594E00E944903E0910704F091080422
:1025E0009E898689891778F4E114F10421F081E04D
:1025F000F701808309C081E080930D0405C080E06D
:1026000003C081E001C081E0DF91CF911F910F9164
:10261000FF90EF900895EF92FF920F931F93CF9347
:10262000DF93EC018B0129A582E089A78DA19EA1F2
:10263000AFA1B8A50196A11DB11D8DA39EA3AFA307
:10264000B8A72130E9F580910904882301F5EE242B
:10265000FF246894E1F8EC0EFD1EC7010E949A0366
:102660008E8990911004981710F48093100490E0D4
:102670009C01220F331F220F331F220F331F820FA3
:10268000931F865E9B4FB7010E94490307C0BE019E
:10269000645F7F4F89E594E00E944903E09107045D
:1026A000F09108049E898689891750F40115110557
:1026B00021F081E0F801808303C081E080930D0464
:1026C000DF91CF911F910F91FF90EF9008950097A8
:1026D00029F4E0910704F091080401C0FC010FB651
:1026E000F8940F9281A5823019F411A681E001C0FF
:1026F00080E00F900FBE0895FB01DC0102C0019045
:0E2700000D9241505040D8F70895F894FFCF45
:10270E00426974300042697431005461736B203237
:08271E0000830349444C45000F
:00000001FF
