S01500006D6573736167652051756575652E7372656305
S11300000C942A000C9447000C9447000C9447006D
S11300100C9447000C9447000C9447000C943F0642
S11300200C9447000C9447000C9447000C94470030
S11300300C9447000C9447000C9447000C94470020
S11300400C9447000C9447000C9447000C94470010
S11300500C94470011241FBECFE5D8E0DEBFCDBF0E
S113006010E0A0E6B0E0E2EAFBE102C005900D92E8
S1130070AC37B107D9F724E0ACE7B0E001C01D927A
S1130080A631B207E1F70E94C1040C94CF0D0C9481
S1130090000084E460E041E00E94DD0084E461E06B
S11300A041E00E94DD0084E462E041E00E94DD0062
S11300B084E463E041E00E94DD0084E464E040E025
S11300C00E94DD0084E465E040E00E94DD0084E4F9
S11300D066E040E00E94DD0084E467E040E00E94C6
S11300E0DD0084E464E041E00E94250284E465E0EC
S11300F041E00E94250284E466E041E00E9425027A
S113010084E467E041E00E94250208950F931F9361
S1130110CF93DF93CDB7DEB760970FB6F894DEBF09
S11301200FBECDBFDE011196E0E6F0E080E1019064
S11301300D928150E1F700E084E460E041E00E9428
S11301404D0184E461E041E00E944D0184E462E0F9
S113015041E00E944D0184E463E041E00E944D01CE
S113016084E4602F40E00E944D0110E0612F6C5F39
S113017084E40E94BD01882361F4E02FF0E0EE0FD7
S1130180FF1FEE0FFF1FE10FF11DEC0FFD1F81811B
S113019004C01F5F143051F70BC060960FB6F8947B
S11301A0DEBF0FBECDBFDF91CF911F910F91089598
S11301B00F5F043009F68FEFF0CF823419F118F491
S11301C0813439F008958334B1F1843409F44CC096
S11301D00895413059F42AB381E090E002C0880FB9
S11301E0991F6A95E2F7822B8ABB08952AB381E0AE
S11301F090E002C0880F991F6A95E2F780958223E8
S11302008ABB0895413059F427B381E090E002C0DD
S1130210880F991F6A95E2F7822B87BB089527B34D
S113022081E090E002C0880F991F6A95E2F78095FB
S1130230822387BB0895413059F424B381E090E0D0
S113024002C0880F991F6A95E2F7822B84BB089538
S113025024B381E090E002C0880F991F6A95E2F709
S11302608095822384BB0895413059F421B381E001
S113027090E002C0880F991F6A95E2F7822B81BB38
S1130280089521B381E090E002C0880F991F6A9518
S1130290E2F78095822381BB0895823419F118F422
S11302A0813439F008958334B1F1843409F44CC0B5
S11302B00895413059F42BB381E090E002C0880FD7
S11302C0991F6A95E2F7822B8BBB08952BB381E0CB
S11302D090E002C0880F991F6A95E2F78095822307
S11302E08BBB0895413059F428B381E090E002C0FB
S11302F0880F991F6A95E2F7822B88BB089528B36B
S113030081E090E002C0880F991F6A95E2F780951A
S1130310822388BB0895413059F425B381E090E0ED
S113032002C0880F991F6A95E2F7822B85BB089556
S113033025B381E090E002C0880F991F6A95E2F727
S11303408095822385BB0895413059F422B381E01E
S113035090E002C0880F991F6A95E2F7822B82BB56
S1130360089522B381E090E002C0880F991F6A9536
S1130370E2F78095822382BB08958234D9F018F481
S1130380813431F04DC0833439F18434B9F148C03B
S113039029B381E090E0062E02C0880F991F0A94C9
S11303A0E2F730E08223932302C0959587956A95FE
S11303B0E2F7089526B381E090E0062E02C0880F8C
S11303C0991F0A94E2F730E08223932302C09595A3
S11303D087956A95E2F7089523B381E090E0062EAD
S11303E002C0880F991F0A94E2F730E08223932316
S11303F002C0959587956A95E2F7089520B381E048
S113040090E0062E02C0880F991F0A94E2F730E0AC
S11304108223932302C0959587956A95E2F7089500
S113042080E00895823459F018F4813431F008954D
S1130430833439F0843439F008956BBB089568BB74
S1130440089565BB089562BB0895823419F118F4C8
S1130450813439F008958334B1F1843409F44CC003
S11304600895413059F42BB381E090E002C0880F25
S1130470991F6A95E2F7822B8BBB08952BB381E019
S113048090E002C0880F991F6A95E2F78095822355
S11304908BBB0895413059F428B381E090E002C049
S11304A0880F991F6A95E2F7822B88BB089528B3B9
S11304B081E090E002C0880F991F6A95E2F7809569
S11304C0822388BB0895413059F425B381E090E03C
S11304D002C0880F991F6A95E2F7822B85BB0895A5
S11304E025B381E090E002C0880F991F6A95E2F776
S11304F08095822385BB0895413059F422B381E06D
S113050090E002C0880F991F6A95E2F7822B82BBA4
S1130510089522B381E090E002C0880F991F6A9584
S1130520E2F78095822382BB08950F931F93CF93A4
S1130530DF93EC010E94910A80917C0081111DC01F
S1130540E1E8F0E086E890E09183808313821282F0
S1130550EDE7F0E08FE193E09383828311821082D0
S1130560A5E8B0E014969C938E9313971296FC938F
S1130570EE93119781E080937C00209709F45FC08B
S11305809E012C5F3F4F2396CE31D34008F05AC0D2
S1130590E0918100F0918200A1E8B0E002C0DF01A7
S11305A0FC01828193818217930720F480819181D9
S11305B00097A9F7C0E0ED37FC0709F446C0CD91D8
S11305C0DC9111978E010C5F1F4F808191818D9377
S11305D09C9382819381821B930B8930910510F146
S11305E0BF01620F731FDB0113969C938E931297C6
S11305F03383228312964D915C91139781E890E0A6
S113060001C0CD01EC01A881B98112962D913C91D4
S1130610139724173507A8F3EB01B983A883DC01EA
S11306206D937C938091700090917100228133814D
S1130630821B930B909371008093700008C000E0BC
S113064010E005C000E010E002C000E010E00E94ED
S11306503A0BC801DF91CF911F910F9108950F9329
S11306601F93CF93DF93009741F1EC018C01045069
S113067011090E94910AF80142815381A1E8B0E076
S113068001C0DF01ED91FC91119722813381241780
S11306903507B8F32497F983E8830D931C932091CD
S11306A07000309171008A819B81820F931F909317
S11306B07100809370000E943A0BDF91CF911F91DB
S11306C00F91089541E060E082E40E944D018FE9BA
S11306D09FE00197F1F700C0000040E060E082E491
S11306E00E944D018FE99FE00197F1F700C00000DF
S11306F00895682F81E40E94120240E061E082E4E0
S11307000E944D010E9462038FEC97E00197F1F77C
S113071000C0000008952FEF81EE94E02150804046
S11307209040E1F700C0000041E060E081E40E94F5
S1130730DD0041E061E081E40E94DD0041E062E02F
S113074081E40E94DD0041E063E081E40E94DD0079
S113075041E064E081E40E94DD0041E065E081E481
S11307600E94DD0041E066E081E40E94DD0041E09A
S113077067E081E40E94DD0041E060E082E40E94E1
S1130780DD0041E062E082E40E94DD0041E061E0DE
S113079082E40E94DD0040E062E082E40E944D01B8
S11307A088E30E9479038FEC97E00197F1F700C08A
S11307B000008EE00E9479038FEC97E00197F1F737
S11307C000C0000081E00E9479038FE19EE401975C
S11307D0F1F700C0000086E00E9479038FEC97E0F7
S11307E00197F1F700C000000895682F81E40E948A
S11307F0120241E061E082E40E944D010E94620322
S11308008FEC97E00197F1F700C000000895FC0118
S11308100396928381832FEF3FEF34832383968360
S113082085839087878310820895FC011186108642
S11308300895CF93DF939C01FB01DC011196CD91C8
S1130840DC911297D383C2838C819D8195838483A9
S11308508C819D81DC0113967C936E9312977D832A
S11308606C8331872087F90180818F5F8083DF91DA
S1130870CF910895CF93DF93EB01488159814F3F86
S11308802FEF520721F4FC01A781B0850DC0DC01D4
S1130890139601C0DF011296ED91FC91139720810C
S11308A0318142175307B0F71296ED91FC911397DB
S11308B0FB83EA83D583C483BD83AC831396DC9323
S11308C0CE93129799878887FC0120812F5F20831C
S11308D0DF91CF910895CF93DF93FC01A085B1857B
S11308E0C281D381848195819D838C83C481D58188
S11308F0828193819B838A8311968D919C91129717
S1130900E817F90731F48481958112969C938E93AC
S11309101197118610868C9181508C93DF91CF9121
S11309200895CF93DF931F92CDB7DEB70E94860060
S113093089838F3FD9F320E048EE53E0BE016F5F17
S11309407F4F80911404909115040E9472078CE2E9
S113095091E00E94B90BEACFCF93DF931F92CDB7FA
S1130960DEB720E048EE53E0BE016F5F7F4F809119
S11309701404909115040E94130889810E94F503C0
S1130980F0CF0E9449000E948B03E12CF12C02E07D
S113099020E030E044E650E062E770E081E994E072
S11309A00E94560901E020E030E044E650E064E7AC
S11309B070E08CEA94E00E94560940E061E085E032
S11309C00E94450790931504809314040E94670ABB
S11309D0FFCF31E1FC013083319722E2208331974C
S11309E0A3E3A0833197608331977083319710829A
S11309F0319760E8608331971082319762E06083B9
S1130A00319763E06083319764E06083319765E0F8
S1130A106083319766E06083319767E06083319744
S1130A2068E06083319769E06083319760E16083B7
S1130A3031973083319732E13083319733E130831A
S1130A40319734E13083319735E13083319736E1A2
S1130A503083319737E13083319738E130833197F0
S1130A6039E13083319730E23083319731E230839A
S1130A7031972083319723E2208331974083319744
S1130A805083319726E22083319727E220833197E0
S1130A9028E22083319729E22083319720E32083C1
S1130AA0319721E32083869708951BBC8CE78ABD88
S1130AB08BE08EBD89B7806189BFA0911204B0918B
S1130AC01304CD91CDBFDD91DEBFFF91EF91DF9196
S1130AD0CF91BF91AF919F918F917F916F915F91D2
S1130AE04F913F912F911F910F91FF90EF90DF90C5
S1130AF0CF90BF90AF909F908F907F906F905F90BA
S1130B004F903F902F901F900F900FBE0F9008951D
S1130B1081E008950F920FB6F8940F921F9211245A
S1130B202F923F924F925F926F927F928F929F92F9
S1130B30AF92BF92CF92DF92EF92FF920F931F93E7
S1130B402F933F934F935F936F937F938F939F93D1
S1130B50AF93BF93CF93DF93EF93FF93A0911204CE
S1130B60B09113040DB60D920EB60D920E940A0CAC
S1130B70A0911204B0911304CD91CDBFDD91DEBFDD
S1130B80FF91EF91DF91CF91BF91AF919F918F91A1
S1130B907F916F915F914F913F912F911F910F9191
S1130BA0FF90EF90DF90CF90BF90AF909F908F9089
S1130BB07F906F905F904F903F902F901F900F9079
S1130BC00FBE0F9008950F920FB6F8940F921F92D4
S1130BD011242F923F924F925F926F927F928F9245
S1130BE09F92AF92BF92CF92DF92EF92FF920F93B8
S1130BF01F932F933F934F935F936F937F938F93A1
S1130C009F93AF93BF93CF93DF93EF93FF93A09101
S1130C101204B09113040DB60D920EB60D920E94FB
S1130C20970A81110E940A0CA0911204B091130436
S1130C30CD91CDBFDD91DEBFFF91EF91DF91CF91DB
S1130C40BF91AF919F918F917F916F915F914F91E0
S1130C503F912F911F910F91FF90EF90DF90CF90D4
S1130C60BF90AF909F908F907F906F905F904F90C8
S1130C703F902F901F900F900FBE0F9008950E94E9
S1130C80E30518950F931F93CF93DF93EC01042F83
S1130C901A8D4C8D41110CC088819981892B09F0E2
S1130CA042C08A819B810E94740D1B821A8242C0B9
S1130CB0011117C050E08C819D810E94C60D2C8DBE
S1130CC08C819D81820F911D9D838C832A813B8120
S1130CD08217930750F1888199819D838C8380E0EA
S1130CE029C050E08E819F810E94C60D8C8D90E0BA
S1130CF09195819591092E813F81280F391F3F835A
S1130D002E83488159812417350730F42A813B8189
S1130D10820F931F9F838E83023049F4112349F07D
S1130D20115080E007C080E005C080E003C080E08F
S1130D3001C080E01F5F1A8FDF91CF911F910F9147
S1130D400895FC01448D4423A9F050E026813781A5
S1130D50240F351F3783268382819381281739070F
S1130D6020F08081918197838683CB01668177818E
S1130D700E94C60D0895EF92FF920F931F93CF9395
S1130D808C010FB6F8940F92FC01C68D1C16ACF4BE
S1130D908189811106C011C0F8018189811105C0C2
S1130DA00CC07801F1E1EF0EF11CC7010E94820C26
S1130DB081110E940E0DC15079F78FEFF801868FD3
S1130DC00F900FBE0FB6F8940F92C58D1C16ACF49D
S1130DD08085811106C011C0F8018085811105C08C
S1130DE00CC07801F8E0EF0EF11CC7010E94820CE0
S1130DF081110E940E0DC15079F78FEFF801858F94
S1130E000F900FBECF911F910F91FF90EF90089517
S1130E10CF93DF93EC010FB6F8940F924881598178
S1130E202C8D30E07B8D729FC001739F900D112437
S1130E30FA01E80FF91FFB83EA831A8E5D834C8362
S1130E40821B930B840F951F9F838E838FEF8D8F4F
S1130E508E8F61110CC08885882389F0CE01089695
S1130E600E94820C882359F00E948A0508C0CE0192
S1130E7008960E940704CE0141960E9407040F9031
S1130E800FBE81E0DF91CF9108950F931F93CF930D
S1130E90DF93082F162F6623C1F0869FC00111240B
S1130EA04F960E949502EC01009741F415C00B8FF8
S1130EB01C8F61E0CE010E9408070EC04F969983F3
S1130EC08883F5CFD983C883F2CF8FE190E00E9465
S1130ED09502EC01892BB1F7CE01DF91CF911F91DF
S1130EE00F9108959F92AF92BF92CF92DF92EF92AB
S1130EF0FF920F931F93CF93DF9300D000D01F92E4
S1130F00CDB7DEB78C016B015D834C83A22EB12C6F
S1130F10992493947C0188E0E80EF11C0FB6F894B0
S1130F200F92F801928D838D981718F0F2E0AF12AA
S1130F3019C04A2DB601C8010E944206F8019189E0
S1130F40992349F0C80141960E94820C882331F00C
S1130F500E948A0503C081110E948A050F900FBE6A
S1130F6081E050C08C819D81892B21F40F900FBEAC
S1130F7080E048C0B11005C0CE0101960E94CA0CA1
S1130F80B92C0F900FBE0E94910A0FB6F8940F92DD
S1130F90F801858D8F3F09F4158EF801868D8F3FFA
S1130FA009F4168E0F900FBEBE016C5F7F4FCE0109
S1130FB001960E94D50C81111FC00FB6F8940F92B0
S1130FC0F801928D0F900FBE838D98130FC06C8122
S1130FD07D81C7010E94700CC8010E94BB060E945B
S1130FE03A0B81119BCF0E948A0598CFC8010E94B9
S1130FF0BB060E943A0B92CFC8010E94BB060E9416
S11310003A0B80E00F900F900F900F900F90DF91AC
S1131010CF911F910F91FF90EF90DF90CF90BF90F1
S1131020AF909F9008958F929F92AF92BF92CF926C
S1131030DF92EF92FF920F931F93CF93DF9300D031
S113104000D01F92CDB7DEB78C015B015D834C836A
S1131050822EE12C992493946C0181E1C80ED11C59
S11310600FB6F8940F92F801F28CFF2091F1C6802C
S1131070D780B501C8010E94A106811019C0FA9455
S1131080F801F28E80819181892B29F40E94B40D9C
S1131090F80193838283F80180858823B1F0C80125
S11310A008960E94820C882381F00E948A050DC054
S11310B0F801D782C6828189882339F0C801419614
S11310C00E94820C81110E948A050F900FBE81E05C
S11310D064C08C819D81892B21F40F900FBE80E028
S11310E05CC0E11005C0CE0101960E94CA0CE92C37
S11310F00F900FBE0E94910A0FB6F8940F92F80158
S1131100858D8F3F09F4158EF801868D8F3F09F484
S1131110168E0F900FBEBE016C5F7F4FCE010196FD
S11311200E94D50C81112BC00FB6F8940F92F801D0
S1131130828D0F900FBE81111CC080819181892BFB
S113114049F40FB6F8940F92828193810E94120D94
S11311500F900FBE6C817D81C6010E94700CC80186
S11311600E94BB060E943A0B81117ACF0E948A0525
S113117077CFC8010E94BB060E943A0B71CFC80109
S11311800E94BB060E943A0B0FB6F8940F92F80126
S1131190828D0F900FBE811163CF0F900F900F902F
S11311A00F900F90DF91CF911F910F91FF90EF90CF
S11311B0DF90CF90BF90AF909F908F900895E09173
S11311C0D103F091D2038081811107C08FEF9FEF8B
S11311D09093A9038093A8030895E091D103F0911B
S11311E0D2030580F681E02D0680F781E02D82810F
S11311F093819093A9038093A8030895FF920F937A
S11312001F93CF93DF93EC01F62E0091B00310915E
S1131210B103809112049091130402960E946B040E
S1131220CF3F8FEFD80769F4FF2059F06091120483
S1131230709113046E5F7F4F83EB93E00E94190457
S11312402FC0C00FD11FE0911204F0911304D38377
S1131250C283C017D10768F460911204709113041B
S11312608091CF039091D0036E5F7F4F0E943A0428
S113127017C060911204709113048091D10390916E
S1131280D2036E5F7F4F0E943A048091A80390912D
S1131290A903C817D90720F4D093A903C093A803BE
S11312A0DF91CF911F910F91FF9008954F925F921C
S11312B06F927F928F929F92AF92BF92CF92DF9262
S11312C0EF92FF920F931F93CF93DF934C016B0127
S11312D05A012901CA010E9495023C01892B09F493
S11312E0E4C08AE290E00E949502EC01892B71F03F
S11312F0788E6F8A81E0A81AB1086A0C7B1CD6012B
S11313008C91898F8C91811105C018C0C3010E94F2
S11313102F03CBC0AE01465E5F4FF6013196BAE0B3
S1131320CB0ED11CCF012191DA012D93AD01DC014B
S11313308C91882319F0CE16DF06A1F71AA2053086
S113134008F004E00E8B0BA31CA26E01B2E0CB0EDE
S1131350D11CC6010E941504CE010C960E941504EE
S1131360D987C88785E090E0801B91099D878C8789
S1131370DB8BCA8B1DA21EA21FA218A619A6A2014E
S1131380B401C3010E94E90499838883E114F10440
S113139019F0F701D183C0830FB6F8940F928091AE
S11313A0B2038F5F8093B20380911204909113046F
S11313B0892BD1F5D0931304C09312048091B20306
S11313C0813009F041C005EE13E00F2EF2E1EF2E5B
S11313D0F4E0FF2EF02DC8010E940704075F1F4FA1
S11313E00E151F05C1F78CED93E00E94070483EDF1
S11313F093E00E94070486EC93E00E9407048DEBBF
S113140093E00E94070483EB93E00E9407048CEDB1
S113141093E09093D2038093D10383ED93E0909370
S1131420D0038093CF0310C08091AE0381110CC010
S1131430E0911204F091130496898E89891720F0A3
S1131440D0931304C09312048091AA038F5F8093F6
S1131450AA038E899091AF03981710F48093AF0379
S113146090E09C01220F331F220F331F220F331FE2
S1131470820F931FB6018B519C4F0E9419040F9049
S11314800FBE8091AE03882361F0E0911204F091C5
S1131490130496898E89981730F40E948A0581E096
S11314A005C081E003C081E001C08FEFDF91CF91DF
S11314B01F910F91FF90EF90DF90CF90BF90AF906E
S11314C09F908F907F906F905F904F900895EF92D0
S11314D0FF920F930F2EF6EAEF2EF3E0FF2EF02D7E
S11314E000E020E030E048EC50E066E770E08DEC8E
S11314F09BE00E945609813081F4F8948FEF9FEFAE
S11315009093A9038093A80381E08093AE03109283
S1131510B1031092B0030E9455050F91FF90EF9014
S113152008958091A5038F5F8093A5030895CF92BA
S1131530DF92EF92FF920F931F93CF93DF938091EB
S1131540A503811181C0E090B003F090B1038FEF47
S1131550E81AF80AF092B103E092B003E114F1043E
S1131560B9F48091D1039091D2032091CF033091AB
S1131570D0033093D2032093D1039093D00380936C
S1131580CF038091AB038F5F8093AB030E94DF088E
S11315908091A8039091A903E816F90610F4D12CC0
S11315A059C0D12CCC24C394E091D103F091D2033F
S11315B08081811107C08FEF9FEF9093A9038093DF
S11315C0A80348C0E091D103F091D2030580F681CD
S11315D0E02DC681D7818A819B81E816F90628F41B
S11315E09093A9038093A80335C08E010E5F1F4F0B
S11315F0C8010E946B048C899D89892B21F0CE013E
S11316000C960E946B048E899091AF03981710F486
S11316108093AF0390E09C01220F331F220F331FEE
S1131620220F331F820F931FB8018B519C4F0E94CE
S11316301904E0911204F09113049E898689981785
S113164008F4B2CFDC2CB0CF8091AD038F5F8093D0
S1131650AD03D12C8091AC03882311F0DD24D39405
S11316608D2DDF91CF911F910F91FF90EF90DF901F
S1131670CF900895DF92EF92FF920F931F93CF9331
S1131680DF930FB6F8940F928091A5038150809355
S1131690A5038091A50381115FC08091B2038111DC
S11316A033C05DC0D7011596ED91FC911697C681A4
S11316B0D781CE010C960E946B048E010E5F1F4FE2
S11316C0C8010E946B048E899091AF03981710F49F
S11316D08093AF0390E09C01220F331F220F331F2E
S11316E0220F331F820F931FB8018B519C4F0E940E
S11316F01904E0911204F09113049E8986899817C5
S113170068F0D092AC030AC0C0E0D0E00F2EF6EC33
S1131710EF2EF3E0FF2EF02DDD24D394F70180812A
S11317208111C0CFCD2B11F00E94DF08C091AD0311
S1131730CC2351F0D1E00E94970A8111D093AC03DD
S1131740C150C9F71092AD038091AC03882331F0E6
S11317500E948A0581E003C080E001C080E00F9010
S11317600FBEDF91CF911F910F91FF90EF90DF900B
S11317700895CF93DF93EC01892B51F00E94910AD5
S113178060E0CE010E94FE080E943A0B811102C063
S11317900E948A05DF91CF9108950DEB13E00F2E7F
S11317A0F5EEEF2EF3E0FF2EF02D29C00E94910AF2
S11317B0D801CC910E943A0BCC2309F10FB6F894CE
S11317C00F92D8011596ED91FC911697C681D78199
S11317D0CE0102960E946B048091B20381508093E3
S11317E0B2038091BC0381508093BC030F900FBE61
S11317F08F89988D0E942F03CE010E942F03809120
S1131800BC038111D3CFF70180818230C0F30E94E1
S11318108A05F5CF8091A503882321F081E0809388
S1131820AC0308951092AC032091AF03822F90E093
S1131830FC01EE0FFF1FEE0FFF1FEE0FFF1FE80F5F
S1131840F91FEB51FC4F3081311111C02150822F0F
S113185090E0FC01EE0FFF1FEE0FFF1FEE0FFF1FC6
S1131860E80FF91FEB51FC4F3081332379F3AC01BE
S1131870440F551F440F551F440F551F480F591F40
S1131880DA01AB51BC4F1196ED91FC911297028095
S1131890F381E02D1296FC93EE93119748515C4F1F
S11318A0E417F50729F442815381FD0152834183F2
S11318B0FC01EE0FFF1FEE0FFF1FEE0FFF1F8E0F39
S11318C09F1FFC01EB51FC4F0180F281E02D8681CA
S11318D0978190931304809312042093AF03089587
S11318E0CF93DF93EB016091120470911304645F52
S11318F07F4F0E943A0461E0CE010E94FE08DF910E
S1131900CF9108950F931F93CF93DF93DC01159626
S1131910ED91FC911697C681D7818E01045F1F4F0C
S1131920C8010E946B048091A50381111CC00A5058
S11319301109C8010E946B048E899091AF03981716
S113194010F48093AF0390E09C01220F331F220F09
S1131950331F220F331F820F931FB8018B519C4FEB
S11319600E94190405C0B80186EC93E00E94190492
S1131970E0911204F09113049E898689891720F45A
S113198081E08093AC0301C080E0DF91CF911F918F
S11319900F9108952091AB03FC0120832091B003A3
S11319A03091B1033283218308950FB6F8940F92D6
S11319B04091B0035091B103DB012D913C912F3F35
S11319C0BFEF3B0719F1E091AB03DC01FC91FE177B
S11319D039F01196ED91FC9112974E175F07C0F400
S11319E0DC011196ED91FC911297DA01AE1BBF0B4D
S11319F0A217B30778F4DB01E41BF50B2E0F3F1F8E
S1131A002D933C930E94CA0C80E005C080E003C083
S1131A1081E001C081E00F900FBE089581E08093C2
S1131A20AC0308950F931F93CF93DF93FC01892B8D
S1131A3009F455C02689A0911204B0911304569656
S1131A408C91281708F04BC084859585992364F000
S1131A50A0911204B091130456963C9185E090E055
S1131A60831B91099587848730E0C901880F991FEA
S1131A70880F991F880F991F280F391F2B513C4F2E
S1131A80828593858217930719F58F01EF012296BA
S1131A90CE010E946B04E0911204F0911304868934
S1131AA0F801868B9091AF03981710F48093AF03DD
S1131AB090E09C01220F331F220F331F220F331F8C
S1131AC0820F931FBE018B519C4F0E94190407C0C3
S1131AD0A0911204B091130456968C91868BDF91D9
S1131AE0CF911F910F9108950F931F93CF93DF937D
S1131AF0FC01892B79F184A1815084A3268993A1C7
S1131B00291751F181112AC0EF018F010E5F1F4F78
S1131B10C8010E946B048BA18E8B25E030E0281B4A
S1131B2031093D872C879091AF03981710F4809367
S1131B30AF0390E09C01220F331F220F331F220FAB
S1131B40331F820F931FB8018B519C4F0E941904BD
S1131B5081E005C080E003C080E001C080E0DF9147
S1131B60CF911F910F9108958091120490911304C5
S1131B70892B39F0E0911204F091130484A18F5F52
S1131B8084A380911204909113040895FB01DC0155
S1131B9002C001900D9241505040D8F70895F89436
S1051BA0FFCF71
S1131BA23738392F3435362A3132332D41303D2BF3
S10F1BB21F034D004E0049444C45000048
S9030000FC
