S011000073656D6170686F72652E737265634F
S11300000C942A000C9405060C9447000C944700A9
S11300100C9447000C9447000C9447000C94F6028F
S11300200C9447000C9447000C9447000C94470030
S11300300C9447000C9447000C9447000C94470020
S11300400C9447000C9447000C9447000C94470010
S11300500C94470011241FBECFE5D8E0DEBFCDBF0E
S113006010E0A0E6B0E0EAE1F6E102C005900D92EE
S1130070AA36B107D9F724E0AAE6B0E001C01D9280
S1130080A430B207E1F70E94E5050C940B0B0C9425
S113009000000F931F93CF93DF93EC010E94E107BD
S11300A080916A0081111DC0EFE6F0E084E790E0E2
S11300B09183808313821282EBE6F0E08FE193E078
S11300C09383828311821082A3E7B0E014969C93F9
S11300D08E9313971296FC93EE93119781E080937D
S11300E06A00209709F45FC09E012C5F3F4F23965E
S11300F0CE31D34008F05AC0E0916F00F091700007
S1130100AFE6B0E002C0DF01FC0182819381821777
S1130110930720F4808191810097A9F7C0E0EB3622
S1130120FC0709F446C0CD91DC9111978E010C5F58
S11301301F4F808191818D939C9382819381821B37
S1130140930B8930910510F1BF01620F731FDB011E
S113015013969C938E9312973383228312964D9118
S11301605C9113978FE690E001C0CD01EC01A8816A
S1130170B98112962D913C91139724173507A8F352
S1130180EB01B983A883DC016D937C9380916000BB
S11301909091610022813381821B930B90936100C3
S11301A08093600008C000E010E005C000E010E0AB
S11301B002C000E010E00E948A08C801DF91CF91DC
S11301C01F910F9108950F931F93CF93DF9300977F
S11301D041F1EC018C01045011090E94E107F8017E
S11301E042815381AFE6B0E001C0DF01ED91FC91A3
S11301F011972281338124173507B8F32497F983A3
S1130200E8830D931C9320916000309161008A81F2
S11302109B81820F931F90936100809360000E94E2
S11302208A08DF91CF911F910F910895FC010396E5
S1130230928381832FEF3FEF3483238396838583D7
S11302409087878310820895FC0111861086089593
S1130250CF93DF939C01FB01DC011196CD91DC91DE
S11302601297D383C2838C819D81958384838C81EF
S11302709D81DC0113967C936E9312977D836C832E
S113028031872087F90180818F5F8083DF91CF914F
S11302900895CF93DF93EB01488159814F3F2FEFAE
S11302A0520721F4FC01A781B0850DC0DC0113962F
S11302B001C0DF011296ED91FC91139720813181E9
S11302C042175307B0F71296ED91FC911397FB83F5
S11302D0EA83D583C483BD83AC831396DC93CE9326
S11302E0129799878887FC0120812F5F2083DF91F3
S11302F0CF910895CF93DF93FC01A085B185C2818E
S1130300D381848195819D838C83C481D5818281AD
S113031093819B838A8311968D919C911297E81700
S1130320F90731F48481958112969C938E931197E9
S1130330118610868C9181508C93DF91CF91089512
S113034031E1FC013083319722E220833197A3E32A
S1130350A0833197608331977083319710823197EE
S113036060E8608331971082319762E0608331974F
S113037063E06083319764E06083319765E0608374
S1130380319766E06083319767E06083319768E076
S11303906083319769E06083319760E160833197CE
S11303A03083319732E13083319733E130833197B1
S11303B034E13083319735E13083319736E130834E
S11303C0319737E13083319738E13083319739E120
S11303D03083319730E23083319731E23083319783
S11303E02083319723E220833197408331975083D0
S11303F0319726E22083319727E22083319728E240
S11304002083319729E22083319720E32083319799
S113041021E32083869708951BBC8CE78ABD8BE07B
S11304208EBD89B7806189BFA0910004B091010499
S1130430CD91CDBFDD91DEBFFF91EF91DF91CF91E3
S1130440BF91AF919F918F917F916F915F914F91E8
S11304503F912F911F910F91FF90EF90DF90CF90DC
S1130460BF90AF909F908F907F906F905F904F90D0
S11304703F902F901F900F900FBE0F90089581E032
S113048008950F920FB6F8940F921F9211242F9291
S11304903F924F925F926F927F928F929F92AF9210
S11304A0BF92CF92DF92EF92FF920F931F932F93FD
S11304B03F934F935F936F937F938F939F93AF93E8
S11304C0BF93CF93DF93EF93FF93A0910004B09178
S11304D001040DB60D920EB60D920E944609A0912C
S11304E00004B0910104CD91CDBFDD91DEBFFF9139
S11304F0EF91DF91CF91BF91AF919F918F917F91B8
S11305006F915F914F913F912F911F910F91FF90A8
S1130510EF90DF90CF90BF90AF909F908F907F909F
S11305206F905F904F903F902F901F900F900FBE51
S11305300F9008950F920FB6F8940F921F92112402
S11305402F923F924F925F926F927F928F929F92DF
S1130550AF92BF92CF92DF92EF92FF920F931F93CD
S11305602F933F934F935F936F937F938F939F93B7
S1130570AF93BF93CF93DF93EF93FF93A0910004C6
S1130580B09101040DB60D920EB60D920E94E707CC
S113059081110E944609A0910004B0910104CD91FB
S11305A0CDBFDD91DEBFFF91EF91DF91CF91BF9180
S11305B0AF919F918F917F916F915F914F913F91F7
S11305C02F911F910F91FF90EF90DF90CF90BF90EC
S11305D0AF909F908F907F906F905F904F903F90DF
S11305E02F901F900F900FBE0F9008950E949A02B3
S11305F018950F931F93CF93DF93EC01042F1A8D5B
S11306004C8D41110CC088819981892B09F042C01D
S11306108A819B810E94B00A1B821A8242C0011106
S113062017C050E08C819D810E94020B2C8D8C811F
S11306309D81820F911D9D838C832A813B8182172A
S1130640930750F1888199819D838C8380E029C030
S113065050E08E819F810E94020B8C8D90E09195D9
S1130660819591092E813F81280F391F3F832E8365
S1130670488159812417350730F42A813B81820F40
S1130680931F9F838E83023049F4112349F0115044
S113069080E007C080E005C080E003C080E001C0C6
S11306A080E01F5F1A8FDF91CF911F910F91089502
S11306B0FC01448D4423A9F050E026813781240FA6
S11306C0351F37832683828193812817390720F0C9
S11306D08081918197838683CB01668177810E9493
S11306E0020B0895EF92FF920F931F93CF938C0107
S11306F00FB6F8940F92FC01C68D1C16ACF48189D8
S1130700811106C011C0F8018189811105C00CC096
S11307107801F1E1EF0EF11CC7010E94BE098111BD
S11307200E944A0AC15079F78FEFF801868F0F9023
S11307300FBE0FB6F8940F92C58D1C16ACF48085CD
S1130740811106C011C0F8018085811105C00CC05B
S11307507801F8E0EF0EF11CC7010E94BE09811177
S11307600E944A0AC15079F78FEFF801858F0F90E4
S11307700FBECF911F910F91FF90EF900895CF93EB
S1130780DF93EC010FB6F8940F92488159812C8DB8
S113079030E07B8D729FC001739F900D1124FA018C
S11307A0E80FF91FFB83EA831A8E5D834C83821B57
S11307B0930B840F951F9F838E838FEF8D8F8E8F66
S11307C061110CC08885882389F0CE0108960E94A7
S11307D0BE09882359F00E94410208C0CE01089640
S11307E00E941601CE0141960E9416010F900FBE81
S11307F081E0DF91CF9108950F931F93CF93DF93FF
S1130800082F162F6623C1F0869FC00111244F962E
S11308100E944900EC01009741F415C00B8F1C8F16
S113082061E0CE010E94BF030EC04F969983888376
S1130830F5CFD983C883F2CF8FE190E00E944900BD
S1130840EC01892BB1F7CE01DF91CF911F910F916C
S113085008959F92AF92BF92CF92DF92EF92FF9250
S11308600F931F93CF93DF9300D000D01F92CDB787
S1130870DEB78C016B015D834C83A22EB12C9924CD
S113088093947C0188E0E80EF11C0FB6F8940F9263
S1130890F801928D838D981718F0F2E0AF1219C009
S11308A04A2DB601C8010E94F902F80191899923E1
S11308B049F0C80141960E94BE09882331F00E9484
S11308C0410203C081110E9441020F900FBE81E0DA
S11308D050C08C819D81892B21F40F900FBE80E044
S11308E048C0B11005C0CE0101960E94060AB92C79
S11308F00F900FBE0E94E1070FB6F8940F92F80113
S1130900858D8F3F09F4158EF801868D8F3F09F48C
S1130910168E0F900FBEBE016C5F7F4FCE01019605
S11309200E94110A81111FC00FB6F8940F92F801AA
S1130930928D0F900FBE838D98130FC06C817D81B3
S1130940C7010E94AC09C8010E9472030E948A0870
S113095081119BCF0E94410298CFC8010E9472036B
S11309600E948A0892CFC8010E9472030E948A08DA
S113097080E00F900F900F900F900F90DF91CF9128
S11309801F910F91FF90EF90DF90CF90BF90AF90A9
S11309909F900895CF93DF93FC01828D938D8917E7
S11309A0C0F4968D8F5F828F9F3F79F4818988236D
S11309B091F0EB01CF0141960E94BE09882369F0B2
S11309C0209769F081E088830BC09F5F968F81E058
S11309D007C080E005C081E003C081E001C081E080
S11309E0DF91CF9108958F929F92AF92BF92CF9251
S11309F0DF92EF92FF920F931F93CF93DF9300D078
S1130A0000D01F92CDB7DEB78C015B015D834C83B0
S1130A10822EE12C992493946C0181E1C80ED11C9F
S1130A200FB6F8940F92F801F28CFF2091F1C68072
S1130A30D780B501C8010E945803811019C0FA94E7
S1130A40F801F28E80819181892B29F40E94F00AA9
S1130A50F80193838283F80180858823B1F0C8016B
S1130A6008960E94BE09882381F00E9441020DC0AD
S1130A70F801D782C6828189882339F0C80141965A
S1130A800E94BE0981110E9441020F900FBE81E0B5
S1130A9064C08C819D81892B21F40F900FBE80E06E
S1130AA05CC0E11005C0CE0101960E94060AE92C43
S1130AB00F900FBE0E94E1070FB6F8940F92F80151
S1130AC0858D8F3F09F4158EF801868D8F3F09F4CB
S1130AD0168E0F900FBEBE016C5F7F4FCE01019644
S1130AE00E94110A81112BC00FB6F8940F92F801DD
S1130AF0828D0F900FBE81111CC080819181892B42
S1130B0049F40FB6F8940F92828193810E944E0AA1
S1130B100F900FBE6C817D81C6010E94AC09C80193
S1130B200E9472030E948A0881117ACF0E944102B6
S1130B3077CFC8010E9472030E948A0871CFC8014E
S1130B400E9472030E948A080FB6F8940F92F8016B
S1130B50828D0F900FBE811163CF0F900F900F9075
S1130B600F900F90DF91CF911F910F91FF90EF9015
S1130B70DF90CF90BF90AF909F908F9008958F9A01
S1130B8020E044E650E060E070E08091020490913F
S1130B9003040E94F304813099F782B3805882BB26
S1130BA02FEF89E698E1215080409040E1F700C0A2
S1130BB0000020E040E050E060E070E0809102043A
S1130BC0909103040E942904DBCFE12CF12C01E075
S1130BD020E030E044E650E062E670E08FEB95E020
S1130BE00E94A60678948BB780648BBF85B7836018
S1130BF085BF43E060E081E00E94FC03909303041E
S1130C00809302040E94B707FFCF1F920F920FB682
S1130C100F9211242F933F934F935F936F937F937E
S1130C208F939F93AF93BF93EF93FF9360E070E034
S1130C3080910204909103040E94CA04FF91EF91F1
S1130C40BF91AF919F918F917F916F915F914F91E0
S1130C503F912F910F900FBE0F901F901895E09128
S1130C60BF03F091C0038081811107C08FEF9FEF14
S1130C7090939703809396030895E091BF03F091B6
S1130C80C0030580F681E02D0680F781E02D828186
S1130C90938190939703809396030895FF920F9303
S1130CA01F93CF93DF93EC01F62E00919E031091D6
S1130CB09F03809100049091010402960E947A019E
S1130CC0CF3F8FEFD80769F4FF2059F060910004FB
S1130CD0709101046E5F7F4F81EA93E00E942801C6
S1130CE02FC0C00FD11FE0910004F0910104D38301
S1130CF0C283C017D10768F46091000470910104A5
S1130D008091BD039091BE036E5F7F4F0E944901A5
S1130D1017C060910004709101048091BF03909109
S1130D20C0036E5F7F4F0E944901809196039091AA
S1130D309703C817D90720F4D0939703C093960359
S1130D40DF91CF911F910F91FF9008954F925F9281
S1130D506F927F928F929F92AF92BF92CF92DF92C7
S1130D60EF92FF920F931F93CF93DF934C016B018C
S1130D705A012901CA010E9449003C01892B09F446
S1130D80E4C08AE290E00E944900EC01892B71F0F2
S1130D90788E6F8A81E0A81AB1086A0C7B1CD60190
S1130DA08C91898F8C91811105C018C0C3010E9458
S1130DB0E300CBC0AE01465E5F4FF6013196BAE068
S1130DC0CB0ED11CCF012191DA012D93AD01DC01B1
S1130DD08C91882319F0CE16DF06A1F71AA20530EC
S1130DE008F004E00E8B0BA31CA26E01B2E0CB0E44
S1130DF0D11CC6010E942401CE010C960E9424013C
S1130E00D987C88785E090E0801B91099D878C87EE
S1130E10DB8BCA8B1DA21EA21FA218A619A6A201B3
S1130E20B401C3010E94A00199838883E114F104F1
S1130E3019F0F701D183C0830FB6F8940F92809113
S1130E40A0038F5F8093A00380910004909101041C
S1130E50892BD1F5D0930104C09300048091A003A1
S1130E60813009F041C003ED13E00F2EF0E0EF2EC6
S1130E70F4E0FF2EF02DC8010E941601075F1F4FFA
S1130E800E151F05C1F78AEC93E00E94160181EC50
S1130E9093E00E94160184EB93E00E9416018BEA12
S1130EA093E00E94160181EA93E00E9416018AEC05
S1130EB093E09093C0038093BF0381EC93E09093FD
S1130EC0BE038093BD0310C080919C0381110CC0AC
S1130ED0E0910004F091010496898E89891720F02D
S1130EE0D0930104C0930004809198038F5F809392
S1130EF098038E8990919D03981710F480939D0315
S1130F0090E09C01220F331F220F331F220F331F47
S1130F10820F931FB6018D529C4F0E9428010F909F
S1130F200FBE80919C03882361F0E0910004F0914E
S1130F30010496898E89981730F40E94410281E059
S1130F4005C081E003C081E001C08FEFDF91CF9144
S1130F501F910F91FF90EF90DF90CF90BF90AF90D3
S1130F609F908F907F906F905F904F900895EF9235
S1130F70FF920F930F2EF4E9EF2EF3E0FF2EF02DE6
S1130F8000E020E030E048EC50E064E670E089E006
S1130F9099E00E94A606813081F4F8948FEF9FEFC8
S1130FA0909397038093960381E080939C0310921F
S1130FB09F0310929E030E940C020F91FF90EF90EA
S1130FC00895809193038F5F809393030895CF9244
S1130FD0DF92EF92FF920F931F93CF93DF93809151
S1130FE09303811181C0E0909E03F0909F038FEFE3
S1130FF0E81AF80AF0929F03E0929E03E114F104C8
S1131000B9F48091BF039091C0032091BD03309146
S1131010BE033093C0032093BF039093BE03809319
S1131020BD03809199038F5F809399030E942F06DB
S11310308091960390919703E816F90610F4D12C49
S113104059C0D12CCC24C394E091BF03F091C003C8
S11310508081811107C08FEF9FEF90939703809356
S1131060960348C0E091BF03F091C0030580F68168
S1131070E02DC681D7818A819B81E816F90628F480
S1131080909397038093960335C08E010E5F1F4F94
S1131090C8010E947A018C899D89892B21F0CE0197
S11310A00C960E947A018E8990919D03981710F4F2
S11310B080939D0390E09C01220F331F220F331F66
S11310C0220F331F820F931FB8018D529C4F0E9431
S11310D02801E0910004F09101049E898689981703
S11310E008F4B2CFDC2CB0CF80919B038F5F809348
S11310F09B03D12C80919A03882311F0DD24D3948F
S11311008D2DDF91CF911F910F91FF90EF90DF9084
S1131110CF900895DF92EF92FF920F931F93CF9396
S1131120DF930FB6F8940F928091930381508093CC
S113113093038091930381115FC08091A003811177
S113114033C05DC0D7011596ED91FC911697C68109
S1131150D781CE010C960E947A018E010E5F1F4F3B
S1131160C8010E947A018E8990919D03981710F40A
S113117080939D0390E09C01220F331F220F331FA5
S1131180220F331F820F931FB8018D529C4F0E9470
S11311902801E0910004F09101049E898689981742
S11311A068F0D0929A030AC0C0E0D0E00F2EF4EBAE
S11311B0EF2EF3E0FF2EF02DDD24D394F701808190
S11311C08111C0CFCD2B11F00E942F06C0919B033B
S11311D0CC2351F0D1E00E94E7078111D0939A0308
S11311E0C150C9F710929B0380919A03882331F070
S11311F00E94410281E003C080E001C080E00F90C2
S11312000FBEDF91CF911F910F91FF90EF90DF9070
S113121008950BEA13E00F2EF3EDEF2EF3E0FF2E0B
S1131220F02D29C00E94E107D801CC910E948A08C0
S1131230CC2309F10FB6F8940F92D8011596ED91CD
S1131240FC911697C681D781CE0102960E947A013D
S11312508091A00381508093A0038091AA038150C0
S11312608093AA030F900FBE8F89988D0E94E3008C
S1131270CE010E94E3008091AA038111D3CFF7012C
S113128080818230C0F30E944102F5CF80919303A4
S1131290882321F081E080939A03089510929A03A1
S11312A020919D03822F90E0FC01EE0FFF1FEE0FB3
S11312B0FF1FEE0FFF1FE80FF91FED52FC4F3081A7
S11312C0311111C02150822F90E0FC01EE0FFF1F5D
S11312D0EE0FFF1FEE0FFF1FE80FF91FED52FC4F3B
S11312E03081332379F3AC01440F551F440F551F4C
S11312F0440F551F480F591FDA01AD52BC4F1196C8
S1131300ED91FC9112970280F381E02D1296FC93EB
S1131310EE9311974A525C4FE417F50729F4428182
S11313205381FD0152834183FC01EE0FFF1FEE0F39
S1131330FF1FEE0FFF1F8E0F9F1FFC01ED52FC4F8E
S11313400180F281E02D868197819093010480933E
S1131350000420939D030895CF93DF93EB016091E4
S1131360000470910104645F7F4F0E94490161E0B1
S1131370CE010E944E06DF91CF9108950F931F93E3
S1131380CF93DF93DC011596ED91FC911697C681FE
S1131390D7818E01045F1F4FC8010E947A0180919A
S11313A0930381111CC00A501109C8010E947A01DB
S11313B08E8990919D03981710F480939D0390E07B
S11313C09C01220F331F220F331F220F331F820F62
S11313D0931FB8018D529C4F0E94280105C0B8018B
S11313E084EB93E00E942801E0910004F091010451
S11313F09E898689891720F481E080939A0301C02D
S113140080E0DF91CF911F910F910895209199036E
S1131410FC01208320919E0330919F03328321831A
S113142008950FB6F8940F9240919E0350919F0334
S1131430DB012D913C912F3FBFEF3B0719F1E09168
S11314409903DC01FC91FE1739F01196ED91FC91A2
S113145012974E175F07C0F4DC011196ED91FC91D1
S11314601297DA01AE1BBF0BA217B30778F4DB01A6
S1131470E41BF50B2E0F3F1F2D933C930E94060A8D
S113148080E005C080E003C081E001C081E00F90EE
S11314900FBE089581E080939A0308950F931F93DC
S11314A0CF93DF93FC01892B09F455C02689A091C1
S11314B00004B091010456968C91281708F04BC093
S11314C084859585992364F0A0910004B09101046A
S11314D056963C9185E090E0831B9109958784871B
S11314E030E0C901880F991F880F991F880F991F31
S11314F0280F391F2D523C4F8285938582179307FD
S113150019F58F01EF012296CE010E947A01E09134
S11315100004F09101048689F801868B90919D0363
S1131520981710F480939D0390E09C01220F331FC1
S1131530220F331F220F331F820F931FBE018D52C0
S11315409C4F0E94280107C0A0910004B09101049F
S113155056968C91868BDF91CF911F910F910895B0
S11315600F931F93CF93DF93FC01892B79F184A10F
S1131570815084A3268993A1291751F181112AC08E
S1131580EF018F010E5F1F4FC8010E947A018BA1EA
S11315908E8B25E030E0281B31093D872C87909104
S11315A09D03981710F480939D0390E09C01220FF3
S11315B0331F220F331F220F331F820F931FB801D3
S11315C08D529C4F0E94280181E005C080E003C039
S11315D080E001C080E0DF91CF911F910F910895C9
S11315E08091000490910104892B39F0E09100046A
S11315F0F091010484A18F5F84A3809100049091F1
S113160001040895FB01DC0102C001900D924150D8
S10D16105040D8F70895F894FFCF76
S10D161A1F034D0049444C45000035
S9030000FC
