S00D00006D757465782E73726563E4
S11300000C942A000C9447000C9447000C9447006D
S11300100C9447000C9447000C9447000C948903FB
S11300200C9447000C9447000C9447000C94470030
S11300300C9447000C9447000C9447000C94470020
S11300400C9447000C9447000C9447000C94470010
S11300500C94470011241FBECFE5D8E0DEBFCDBF0E
S113006010E0A0E6B0E0EAE6F6E102C005900D92E9
S1130070AC36B107D9F724E0ACE6B0E001C01D927C
S1130080AA30B207E1F70E9411020C94330B0C94CE
S113009000000F931F93CF93DF93EC010E94F507A9
S11300A080916C0081111DC0E1E7F0E086E790E0EB
S11300B09183808313821282EDE6F0E08FE193E076
S11300C09383828311821082A5E7B0E014969C93F7
S11300D08E9313971296FC93EE93119781E080937D
S11300E06C00209709F45FC09E012C5F3F4F23965C
S11300F0CE31D34008F05AC0E0917100F091720003
S1130100A1E7B0E002C0DF01FC0182819381821784
S1130110930720F4808191810097A9F7C0E0ED3620
S1130120FC0709F446C0CD91DC9111978E010C5F58
S11301301F4F808191818D939C9382819381821B37
S1130140930B8930910510F1BF01620F731FDB011E
S113015013969C938E9312973383228312964D9118
S11301605C91139781E790E001C0CD01EC01A88177
S1130170B98112962D913C91139724173507A8F352
S1130180EB01B983A883DC016D937C9380916000BB
S11301909091610022813381821B930B90936100C3
S11301A08093600008C000E010E005C000E010E0AB
S11301B002C000E010E00E949E08C801DF91CF91C8
S11301C01F910F9108950F931F93CF93DF9300977F
S11301D041F1EC018C01045011090E94F507F8016A
S11301E042815381A1E7B0E001C0DF01ED91FC91B0
S11301F011972281338124173507B8F32497F983A3
S1130200E8830D931C9320916000309161008A81F2
S11302109B81820F931F90936100809360000E94E2
S11302209E08DF91CF911F910F910895FC010396D1
S1130230928381832FEF3FEF3483238396838583D7
S11302409087878310820895FC0111861086089593
S1130250CF93DF939C01FB01DC011196CD91DC91DE
S11302601297D383C2838C819D81958384838C81EF
S11302709D81DC0113967C936E9312977D836C832E
S113028031872087F90180818F5F8083DF91CF914F
S11302900895CF93DF93EB01488159814F3F2FEFAE
S11302A0520721F4FC01A781B0850DC0DC0113962F
S11302B001C0DF011296ED91FC91139720813181E9
S11302C042175307B0F71296ED91FC911397FB83F5
S11302D0EA83D583C483BD83AC831396DC93CE9326
S11302E0129799878887FC0120812F5F2083DF91F3
S11302F0CF910895CF93DF93FC01A085B185C2818E
S1130300D381848195819D838C83C481D5818281AD
S113031093819B838A8311968D919C911297E81700
S1130320F90731F48481958112969C938E931197E9
S1130330118610868C9181508C93DF91CF91089512
S113034020E048EE53E060E070E080910604909174
S113035007040E9477058091040490910504019696
S113036090930504809304042FEF81EE94E02150D0
S113037080409040E1F700C0000080910804909113
S113038009040196909309048093080420E040E056
S113039050E060E070E080910604909107040E94B0
S11303A0BC04CECF8F9A20E044E150E060E070E0DE
S11303B080910604909107040E947705209104041B
S11303C03091050480910804909109042817390795
S11303D0C1F082B3805882BB2FEF89E698E12150A7
S11303E080409040E1F700C0000082B3805882BB97
S11303F02FEF89E698E1215080409040E1F700C05A
S1130400000020E040E050E060E070E080910604ED
S1130410909107040E94BC0488EE93E00E941D0999
S1130420C2CFE12CF12C02E020E030E044E650E0C1
S113043062E670E082ED91E00E94BA0601E020E0FD
S113044030E044E650E064E670E080EA91E00E9427
S1130450BA0681E00E945D05909307048093060428
S11304600E94CB07FFCF31E1FC013083319722E2B8
S113047020833197A3E3A0833197608331977083FE
S113048031971082319760E86083319710823197F9
S113049062E06083319763E06083319764E0608356
S11304A0319765E06083319766E06083319767E058
S11304B06083319768E06083319769E060833197A6
S11304C060E1608331973083319732E13083319733
S11304D033E13083319734E13083319735E1308330
S11304E0319736E13083319737E13083319738E102
S11304F03083319739E13083319730E2308331975B
S113050031E2308331972083319723E2208331977E
S1130510408331975083319726E22083319727E235
S11305202083319728E22083319729E22083319771
S113053020E32083319721E32083869708951BBC11
S11305408CE78ABD8BE08EBD89B7806189BFA0919D
S11305500204B0910304CD91CDBFDD91DEBFFF91C4
S1130560EF91DF91CF91BF91AF919F918F917F9147
S11305706F915F914F913F912F911F910F91FF9038
S1130580EF90DF90CF90BF90AF909F908F907F902F
S11305906F905F904F903F902F901F900F900FBEE1
S11305A00F90089581E008950F920FB6F8940F927A
S11305B01F9211242F923F924F925F926F927F92DB
S11305C08F929F92AF92BF92CF92DF92EF92FF925F
S11305D00F931F932F933F934F935F936F937F9347
S11305E08F939F93AF93BF93CF93DF93EF93FF9337
S11305F0A0910204B09103040DB60D920EB60D92B3
S11306000E946E09A0910204B0910304CD91CDBF64
S1130610DD91DEBFFF91EF91DF91CF91BF91AF915B
S11306209F918F917F916F915F914F913F912F9106
S11306301F910F91FF90EF90DF90CF90BF90AF90FC
S11306409F908F907F906F905F904F903F902F90EE
S11306501F900F900FBE0F9008950F920FB6F8944D
S11306600F921F9211242F923F924F925F926F929A
S11306707F928F929F92AF92BF92CF92DF92EF922E
S1130680FF920F931F932F933F934F935F936F9317
S11306907F938F939F93AF93BF93CF93DF93EF9306
S11306A0FF93A0910204B09103040DB60D920EB60F
S11306B00D920E94FB0781110E946E09A091020411
S11306C0B0910304CD91CDBFDD91DEBFFF91EF91D9
S11306D0DF91CF91BF91AF919F918F917F916F9156
S11306E05F914F913F912F911F910F91FF90EF9048
S11306F0DF90CF90BF90AF909F908F907F906F903E
S11307005F904F903F902F901F900F900FBE0F90CF
S113071008950E942D0318950F931F93CF93DF9391
S1130720EC01042F1A8D4C8D41110CC088819981E4
S1130730892B09F042C08A819B810E94D80A1B82BE
S11307401A8242C0011117C050E08C819D810E9421
S11307502A0B2C8D8C819D81820F911D9D838C830E
S11307602A813B818217930750F1888199819D8367
S11307708C8380E029C050E08E819F810E942A0BE7
S11307808C8D90E09195819591092E813F81280F60
S1130790391F3F832E83488159812417350730F44C
S11307A02A813B81820F931F9F838E83023049F4F9
S11307B0112349F0115080E007C080E005C080E0BB
S11307C003C080E001C080E01F5F1A8FDF91CF91EA
S11307D01F910F910895FC01448D4423A9F050E02A
S11307E026813781240F351F3783268382819381A5
S11307F02817390720F08081918197838683CB0164
S1130800668177810E942A0B0895EF92FF920F93DD
S11308101F93CF938C010FB6F8940F92FC01C68DF1
S11308201C16ACF48189811106C011C0F8018189BC
S1130830811105C00CC07801F1E1EF0EF11CC70174
S11308400E94E60981110E94720AC15079F78FEF64
S1130850F801868F0F900FBE0FB6F8940F92C58DD6
S11308601C16ACF48085811106C011C0F801808586
S1130870811105C00CC07801F8E0EF0EF11CC7012E
S11308800E94E60981110E94720AC15079F78FEF24
S1130890F801858F0F900FBECF911F910F91FF909C
S11308A0EF900895CF93DF93EC010FB6F8940F9275
S11308B0488159812C8D30E07B8D729FC001739FDC
S11308C0900D1124FA01E80FF91FFB83EA831A8EB5
S11308D05D834C83821B930B840F951F9F838E83B0
S11308E08FEF8D8F8E8F61110CC08885882389F0DE
S11308F0CE0108960E94E609882359F00E94D4028A
S113090008C0CE0108960E941601CE0141960E94AD
S113091016010F900FBE81E0DF91CF9108950F93E0
S11309201F93CF93DF93082F162F6623C1F0869F62
S1130930C00111244F960E944900EC01009741F434
S113094015C00B8F1C8F61E0CE010E9452040EC0B3
S11309504F9699838883F5CFD983C883F2CF8FE1EB
S113096090E00E944900EC01892BB1F7CE01DF91A0
S1130970CF911F910F9108959F92AF92BF92CF9202
S1130980DF92EF92FF920F931F93CF93DF9300D0E8
S113099000D01F92CDB7DEB78C016B015D834C8311
S11309A0A22EB12C992493947C0188E0E80EF11CCA
S11309B00FB6F8940F92F801928D838D981718F062
S11309C0F2E0AF1219C04A2DB601C8010E948C038F
S11309D0F8019189992349F0C80141960E94E609DA
S11309E0882331F00E94D40203C081110E94D402F2
S11309F00F900FBE81E050C08C819D81892B21F422
S1130A000F900FBE80E048C0B11005C0CE01019622
S1130A100E942E0AB92C0F900FBE0E94F5070FB644
S1130A20F8940F92F801858D8F3F09F4158EF80123
S1130A30868D8F3F09F4168E0F900FBEBE016C5F3A
S1130A407F4FCE0101960E94390A81111FC00FB653
S1130A50F8940F92F801928D0F900FBE838D981326
S1130A600FC06C817D81C7010E94D409C8010E9416
S1130A7005040E949E0881119BCF0E94D40298CF46
S1130A80C8010E9405040E949E0892CFC8010E94DA
S1130A9005040E949E0880E00F900F900F900F9025
S1130AA00F90DF91CF911F910F91FF90EF90DF9006
S1130AB0CF90BF90AF909F900895CF93DF93482F2E
S1130AC060E081E00E948F04EC01009761F01B82DA
S1130AD01A82198218821E8220E040E050E060E011
S1130AE070E00E94BC04CE01DF91CF9108958F92F3
S1130AF09F92AF92BF92CF92DF92EF92FF920F93A9
S1130B001F93CF93DF9300D000D01F92CDB7DEB7F1
S1130B108C015B015D834C83822EE12C9924939498
S1130B206C0181E1C80ED11C0FB6F8940F92F80144
S1130B30F28CFF2091F1C680D780B501C8010E94D4
S1130B40EB03811019C0FA94F801F28E808191812F
S1130B50892B29F40E94180BF80193838283F801EE
S1130B6080858823B1F0C80108960E94E60988238D
S1130B7081F00E94D4020DC0F801D782C682818917
S1130B80882339F0C80141960E94E60981110E9428
S1130B90D4020F900FBE81E064C08C819D81892BAB
S1130BA021F40F900FBE80E05CC0E11005C0CE01BF
S1130BB001960E942E0AE92C0F900FBE0E94F507A1
S1130BC00FB6F8940F92F801858D8F3F09F4158EB6
S1130BD0F801868D8F3F09F4168E0F900FBEBE016B
S1130BE06C5F7F4FCE0101960E94390A81112BC0A0
S1130BF00FB6F8940F92F801828D0F900FBE8111F9
S1130C001CC080819181892B49F40FB6F8940F920E
S1130C10828193810E94760A0F900FBE6C817D8140
S1130C20C6010E94D409C8010E9405040E949E08BE
S1130C3081117ACF0E94D40277CFC8010E940504A3
S1130C400E949E0871CFC8010E9405040E949E085C
S1130C500FB6F8940F92F801828D0F900FBE811198
S1130C6063CF0F900F900F900F900F90DF91CF9163
S1130C701F910F91FF90EF90DF90CF90BF90AF90B6
S1130C809F908F900895E091C103F091C2038081F9
S1130C90811107C08FEF9FEF90939903809398037E
S1130CA00895E091C103F091C2030580F681E02D1F
S1130CB00680F781E02D828193819093990380933C
S1130CC098030895FF920F931F93CF93DF93EC0142
S1130CD0F62E0091A0031091A1038091020490913B
S1130CE0030402960E947A01CF3F8FEFD80769F47C
S1130CF0FF2059F060910204709103046E5F7F4FEE
S1130D0083EA93E00E9428012FC0C00FD11FE09115
S1130D100204F0910304D383C283C017D10768F49B
S1130D2060910204709103048091BF039091C00309
S1130D306E5F7F4F0E94490117C060910204709159
S1130D4003048091C1039091C2036E5F7F4F0E94A0
S1130D5049018091980390919903C817D90720F409
S1130D60D0939903C0939803DF91CF911F910F9172
S1130D70FF9008954F925F926F927F928F929F920D
S1130D80AF92BF92CF92DF92EF92FF920F931F9395
S1130D90CF93DF934C016B015A012901CA010E94D0
S1130DA049003C01892B09F4E4C08AE290E00E94E6
S1130DB04900EC01892B71F0788E6F8A81E0A81AC2
S1130DC0B1086A0C7B1CD6018C91898F8C9181119E
S1130DD005C018C0C3010E94E300CBC0AE01465E4B
S1130DE05F4FF6013196BAE0CB0ED11CCF012191B1
S1130DF0DA012D93AD01DC018C91882319F0CE1614
S1130E00DF06A1F71AA2053008F004E00E8B0BA34D
S1130E101CA26E01B2E0CB0ED11CC6010E942401BB
S1130E20CE010C960E942401D987C88785E090E002
S1130E30801B91099D878C87DB8BCA8B1DA21EA208
S1130E401FA218A619A6A201B401C3010E9433026D
S1130E5099838883E114F10419F0F701D183C083E5
S1130E600FB6F8940F928091A2038F5F8093A20330
S1130E708091020490910304892BD1F5D09303044B
S1130E80C09302048091A203813009F041C005EDB2
S1130E9013E00F2EF2E0EF2EF4E0FF2EF02DC80148
S1130EA00E941601075F1F4F0E151F05C1F78CEC3A
S1130EB093E00E94160183EC93E00E94160186EBF6
S1130EC093E00E9416018DEA93E00E94160183EAE2
S1130ED093E00E9416018CEC93E09093C2038093FC
S1130EE0C10383EC93E09093C0038093BF0310C0CD
S1130EF080919E0381110CC0E0910204F0910304DF
S1130F0096898E89891720F0D0930304C093020434
S1130F1080919A038F5F80939A038E8990919F03A7
S1130F20981710F480939F0390E09C01220F331FC5
S1130F30220F331F220F331F820F931FB6018B52D0
S1130F409C4F0E9428010F900FBE80919E0388231E
S1130F5061F0E0910204F091030496898E89981758
S1130F6030F40E94D40281E005C081E003C081E036
S1130F7001C08FEFDF91CF911F910F91FF90EF9000
S1130F80DF90CF90BF90AF909F908F907F906F90A5
S1130F905F904F900895EF92FF920F930F2EF6E912
S1130FA0EF2EF3E0FF2EF02D00E020E030E048ECDF
S1130FB050E066E670E081E399E00E94BA06813071
S1130FC081F4F8948FEF9FEF9093990380939803A3
S1130FD081E080939E031092A1031092A0030E94CB
S1130FE09F020F91FF90EF900895809195038F5F7A
S1130FF0809395030895CF92DF92EF92FF920F931F
S11310001F93CF93DF9380919503811181C0E0906A
S1131010A003F090A1038FEFE81AF80AF092A1035D
S1131020E092A003E114F104B9F48091C10390911A
S1131030C2032091BF033091C0033093C2032093B5
S1131040C1039093C0038093BF0380919B038F5F80
S113105080939B030E944306809198039091990387
S1131060E816F90610F4D12C59C0D12CCC24C39421
S1131070E091C103F091C2038081811107C08FEF19
S11310809FEF909399038093980348C0E091C10324
S1131090F091C2030580F681E02DC681D7818A8153
S11310A09B81E816F90628F490939903809398039A
S11310B035C08E010E5F1F4FC8010E947A018C89D2
S11310C09D89892B21F0CE010C960E947A018E898C
S11310D090919F03981710F480939F0390E09C01D4
S11310E0220F331F220F331F220F331F820F931F30
S11310F0B8018B529C4F0E942801E0910204F091A8
S113110003049E898689981708F4B2CFDC2CB0CFEB
S113111080919D038F5F80939D03D12C80919C03CC
S1131120882311F0DD24D3948D2DDF91CF911F916D
S11311300F91FF90EF90DF90CF900895DF92EF92A0
S1131140FF920F931F93CF93DF930FB6F8940F92F0
S1131150809195038150809395038091950381112B
S11311605FC08091A203811133C05DC0D701159681
S1131170ED91FC911697C681D781CE010C960E9401
S11311807A018E010E5F1F4FC8010E947A018E8979
S113119090919F03981710F480939F0390E09C0113
S11311A0220F331F220F331F220F331F820F931F6F
S11311B0B8018B529C4F0E942801E0910204F091E7
S11311C003049E898689981768F0D0929C030AC00C
S11311D0C0E0D0E00F2EF6EBEF2EF3E0FF2EF02D63
S11311E0DD24D394F70180818111C0CFCD2B11F080
S11311F00E944306C0919D03CC2351F0D1E00E948C
S1131200FB078111D0939C03C150C9F710929D0331
S113121080919C03882331F00E94D40281E003C0B2
S113122080E001C080E00F900FBEDF91CF911F914D
S11312300F91FF90EF90DF900895CF93DF93EC012F
S1131240892B51F00E94F50760E0CE010E946206EE
S11312500E949E08811102C00E94D402DF91CF91A6
S113126008950DEA13E00F2EF5EDEF2EF3E0FF2EB7
S1131270F02D29C00E94F507D801CC910E949E0848
S1131280CC2309F10FB6F8940F92D8011596ED917D
S1131290FC911697C681D781CE0102960E947A01ED
S11312A08091A20381508093A2038091AC0381506A
S11312B08093AC030F900FBE8F89988D0E94E3003A
S11312C0CE010E94E3008091AC038111D3CFF701DA
S11312D080818230C0F30E94D402F5CF80919503BF
S11312E0882321F081E080939C03089510929C034D
S11312F020919F03822F90E0FC01EE0FFF1FEE0F61
S1131300FF1FEE0FFF1FE80FF91FEB52FC4F308158
S1131310311111C02150822F90E0FC01EE0FFF1F0C
S1131320EE0FFF1FEE0FFF1FE80FF91FEB52FC4FEC
S11313303081332379F3AC01440F551F440F551FFB
S1131340440F551F480F591FDA01AB52BC4F119679
S1131350ED91FC9112970280F381E02D1296FC939B
S1131360EE93119748525C4FE417F50729F4428134
S11313705381FD0152834183FC01EE0FFF1FEE0FE9
S1131380FF1FEE0FFF1F8E0F9F1FFC01EB52FC4F40
S11313900180F281E02D86819781909303048093EC
S11313A0020420939F030895CF93DF93EB01609190
S11313B0020470910304645F7F4F0E94490161E05D
S11313C0CE010E946206DF91CF9108950F931F937F
S11313D0CF93DF93DC011596ED91FC911697C681AE
S11313E0D7818E01045F1F4FC8010E947A0180914A
S11313F0950381111CC00A501109C8010E947A0189
S11314008E8990919F03981710F480939F0390E026
S11314109C01220F331F220F331F220F331F820F11
S1131420931FB8018B529C4F0E94280105C0B8013C
S113143086EB93E00E942801E0910204F0910304FA
S11314409E898689891720F481E080939C0301C0DA
S113145080E0DF91CF911F910F91089520919B031C
S1131460FC0120832091A0033091A10332832183C6
S113147008950FB6F8940F924091A0035091A103E0
S1131480DB012D913C912F3FBFEF3B0719F1E09118
S11314909B03DC01FC91FE1739F01196ED91FC9150
S11314A012974E175F07C0F4DC011196ED91FC9181
S11314B01297DA01AE1BBF0BA217B30778F4DB0156
S11314C0E41BF50B2E0F3F1F2D933C930E942E0A15
S11314D080E005C080E003C081E001C081E00F909E
S11314E00FBE089581E080939C0308950F931F938A
S11314F0CF93DF93FC01892B09F455C02689A09171
S11315000204B091030456968C91281708F04BC03E
S113151084859585992364F0A0910204B091030415
S113152056963C9185E090E0831B910995878487CA
S113153030E0C901880F991F880F991F880F991FE0
S1131540280F391F2B523C4F8285938582179307AE
S113155019F58F01EF012296CE010E947A01E091E4
S11315600204F09103048689F801868B90919F030D
S1131570981710F480939F0390E09C01220F331F6F
S1131580220F331F220F331F820F931FBE018B5272
S11315909C4F0E94280107C0A0910204B09103044B
S11315A056968C91868BDF91CF911F910F91089560
S11315B00F931F93CF93DF93FC01892B79F184A1BF
S11315C0815084A3268993A1291751F181112AC03E
S11315D0EF018F010E5F1F4FC8010E947A018BA19A
S11315E08E8B25E030E0281B31093D872C879091B4
S11315F09F03981710F480939F0390E09C01220F9F
S1131600331F220F331F220F331F820F931FB80182
S11316108B529C4F0E94280181E005C080E003C0EA
S113162080E001C080E0DF91CF911F910F91089578
S11316308091020490910304892B39F0E091020413
S1131640F091030484A18F5F84A38091020490919C
S113165003040895FB01DC0102C001900D92415086
S10D16605040D8F70895F894FFCF26
S10F166A1F034D004E0049444C45000095
S9030000FC
