:100000000C942A000C9447000C9447000C94470071
:100010000C9447000C9447000C9447000C94450343
:100020000C9447000C9447000C9447000C94470034
:100030000C9447000C9447000C9447000C94470024
:100040000C9447000C9447000C9447000C94470014
:100050000C94470011241FBECFE5D8E0DEBFCDBF12
:1000600010E0A0E6B0E0E6EBFDE002C005900D92E6
:10007000AC36B107D9F724E0ACE6B0E001C01D9280
:10008000A830B207E1F70E94D4010C94D9060C9471
:1000900000000F931F93CF93DF93EC010E94FA04AB
:1000A00080916C0081111DC0E1E7F0E086E790E0EF
:1000B0009183808313821282EDE6F0E08FE193E07A
:1000C0009383828311821082A5E7B0E014969C93FB
:1000D0008E9313971296FC93EE93119781E0809381
:1000E0006C00209709F45FC09E012C5F3F4F239660
:1000F000CE31D34008F05AC0E0917100F091720007
:10010000A1E7B0E002C0DF01FC0182819381821788
:10011000930720F4808191810097A9F7C0E0ED3624
:10012000FC0709F446C0CD91DC9111978E010C5F5C
:100130001F4F808191818D939C9382819381821B3B
:10014000930B8930910510F1BF01620F731FDB0122
:1001500013969C938E9312973383228312964D911C
:100160005C91139781E790E001C0CD01EC01A8817B
:10017000B98112962D913C91139724173507A8F356
:10018000EB01B983A883DC016D937C9380916000BF
:100190009091610022813381821B930B90936100C7
:1001A0008093600008C000E010E005C000E010E0AF
:1001B00002C000E010E00E94A305C801DF91CF91CA
:1001C0001F910F9108950F931F93CF93DF93009783
:1001D00041F1EC018C01045011090E94FA04F8016C
:1001E00042815381A1E7B0E001C0DF01ED91FC91B4
:1001F00011972281338124173507B8F32497F983A7
:10020000E8830D931C9320916000309161008A81F6
:100210009B81820F931F90936100809360000E94E6
:10022000A305DF91CF911F910F910895FC010396D3
:10023000928381832FEF3FEF3483238396838583DB
:100240009087878310820895FC0111861086089597
:10025000CF93DF939C01FB01DC011196CD91DC91E2
:100260001297D383C2838C819D81958384838C81F3
:100270009D81DC0113967C936E9312977D836C8332
:1002800031872087F90180818F5F8083DF91CF9153
:100290000895CF93DF93EB01488159814F3F2FEFB2
:1002A000520721F4FC01A781B0850DC0DC01139633
:1002B00001C0DF011296ED91FC91139720813181ED
:1002C00042175307B0F71296ED91FC911397FB83F9
:1002D000EA83D583C483BD83AC831396DC93CE932A
:1002E000129799878887FC0120812F5F2083DF91F7
:1002F000CF910895CF93DF93FC01A085B185C28192
:10030000D381848195819D838C83C481D5818281B1
:1003100093819B838A8311968D919C911297E81704
:10032000F90731F48481958112969C938E931197ED
:10033000118610868C9181508C93DF91CF91089516
:100340008F9A2091040430910504809106049091C5
:1003500007042817390719F482B3805882BB84E652
:1003600090E00E942206EDCF0E94FA0480910404DE
:1003700090910504019690930504809304042FEF57
:1003800081EE94E0215080409040E1F700C00000F1
:10039000809106049091070401969093070480933E
:1003A00006040E94A305E0CFE12CF12C02E020E03E
:1003B00030E044E650E062E670E080EA91E00E94BE
:1003C000BF0301E020E030E044E650E064E670E086
:1003D00084EB91E00E94BF030E94D004FFCF31E183
:1003E000FC013083319722E220833197A3E3A0837D
:1003F000319760833197708331971082319760E82D
:10040000608331971082319762E06083319763E0B7
:100410006083319764E06083319765E06083319752
:1004200066E06083319767E06083319768E06083BE
:10043000319769E06083319760E160833197308361
:10044000319732E13083319733E13083319734E1B2
:100450003083319735E13083319736E130833197FE
:1004600037E13083319738E13083319739E1308398
:10047000319730E23083319731E2308331972083F6
:10048000319723E22083319740833197508331970E
:1004900026E22083319727E22083319728E22083C8
:1004A000319729E22083319720E32083319721E39C
:1004B0002083869708951BBC8CE78ABD8BE08EBD98
:1004C00089B7806189BFA0910204B0910304CD91E6
:1004D000CDBFDD91DEBFFF91EF91DF91CF91BF9155
:1004E000AF919F918F917F916F915F914F913F91CC
:1004F0002F911F910F91FF90EF90DF90CF90BF90C1
:10050000AF909F908F907F906F905F904F903F90B3
:100510002F901F900F900FBE0F90089581E00895C7
:100520000F920FB6F8940F921F9211242F923F92C0
:100530004F925F926F927F928F929F92AF92BF92F3
:10054000CF92DF92EF92FF920F931F932F933F93DF
:100550004F935F936F937F938F939F93AF93BF93CB
:10056000CF93DF93EF93FF93A0910204B091030424
:100570000DB60D920EB60D920E947306A091020464
:10058000B0910304CD91CDBFDD91DEBFFF91EF911E
:10059000DF91CF91BF91AF919F918F917F916F919B
:1005A0005F914F913F912F911F910F91FF90EF908D
:1005B000DF90CF90BF90AF909F908F907F906F9083
:1005C0005F904F903F902F901F900F900FBE0F9015
:1005D00008950F920FB6F8940F921F9211242F9244
:1005E0003F924F925F926F927F928F929F92AF92C3
:1005F000BF92CF92DF92EF92FF920F931F932F93B0
:100600003F934F935F936F937F938F939F93AF939A
:10061000BF93CF93DF93EF93FF93A0910204B09128
:1006200003040DB60D920EB60D920E9400058111C5
:100630000E947306A0910204B0910304CD91CDBF36
:10064000DD91DEBFFF91EF91DF91CF91BF91AF912F
:100650009F918F917F916F915F914F913F912F91DA
:100660001F910F91FF90EF90DF90CF90BF90AF90D0
:100670009F908F907F906F905F904F903F902F90C2
:100680001F900F900FBE0F9008950E94E9021895D9
:10069000E091C103F091C2038081811107C08FEF07
:1006A0009FEF90939903809398030895E091C1037D
:1006B000F091C2030580F681E02D0680F781E02DE0
:1006C0008281938190939903809398030895FF9278
:1006D0000F931F93CF93DF93EC01F62E0091A003AD
:1006E0001091A103809102049091030402960E944C
:1006F0007A01CF3F8FEFD80769F4FF2059F060915E
:100700000204709103046E5F7F4F83EA93E00E94BE
:1007100028012FC0C00FD11FE0910204F091030403
:10072000D383C283C017D10768F46091020470912B
:1007300003048091BF039091C0036E5F7F4F0E94BE
:10074000490117C060910204709103048091C103B4
:100750009091C2036E5F7F4F0E9449018091980380
:1007600090919903C817D90720F4D0939903C093A7
:100770009803DF91CF911F910F91FF9008954F92B1
:100780005F926F927F928F929F92AF92BF92CF9221
:10079000DF92EF92FF920F931F93CF93DF934C0161
:1007A0006B015A012901CA010E9449003C01892BB1
:1007B00009F4E4C08AE290E00E944900EC01892B30
:1007C00071F0788E6F8A81E0A81AB1086A0C7B1CE0
:1007D000D6018C91898F8C91811105C018C0C301FD
:1007E0000E94E300CBC0AE01465E5F4FF60131963A
:1007F000BAE0CB0ED11CCF012191DA012D93AD01CE
:10080000DC018C91882319F0CE16DF06A1F71AA21D
:10081000053008F004E00E8B0BA31CA26E01B2E0C1
:10082000CB0ED11CC6010E942401CE010C960E9461
:100830002401D987C88785E090E0801B91099D87B6
:100840008C87DB8BCA8B1DA21EA21FA218A619A61D
:10085000A201B401C3010E94EF0199838883E114CE
:10086000F10419F0F701D183C0830FB6F8940F9209
:100870008091A2038F5F8093A203809102049091E4
:100880000304892BD1F5D0930304C0930204809113
:10089000A203813009F041C005ED13E00F2EF2E014
:1008A000EF2EF4E0FF2EF02DC8010E941601075F25
:1008B0001F4F0E151F05C1F78CEC93E00E94160127
:1008C00083EC93E00E94160186EB93E00E941601F0
:1008D0008DEA93E00E94160183EA93E00E941601DC
:1008E0008CEC93E09093C2038093C10383EC93E07C
:1008F0009093C0038093BF0310C080919E03811129
:100900000CC0E0910204F091030496898E89891746
:1009100020F0D0930304C093020480919A038F5F68
:1009200080939A038E8990919F03981710F4809377
:100930009F0390E09C01220F331F220F331F220FD1
:10094000331F820F931FB6018B529C4F0E942801C8
:100950000F900FBE80919E03882361F0E091020406
:10096000F091030496898E89981730F40E949002C2
:1009700081E005C081E003C081E001C08FEFDF911D
:10098000CF911F910F91FF90EF90DF90CF90BF908C
:10099000AF909F908F907F906F905F904F90089551
:1009A000EF92FF920F930F2EF6E9EF2EF3E0FF2E5A
:1009B000F02D00E020E030E048EC50E066E670E02A
:1009C00086E396E00E94BF03813081F4F8948FEFB4
:1009D0009FEF909399038093980381E080939E0307
:1009E0001092A1031092A0030E945B020F91FF904E
:1009F000EF900895809195038F5F809395030895FC
:100A0000CF92DF92EF92FF920F931F93CF93DF93DA
:100A100080919503811181C0E090A003F090A10323
:100A20008FEFE81AF80AF092A103E092A003E11414
:100A3000F104B9F48091C1039091C2032091BF03E6
:100A40003091C0033093C2032093C1039093C0033D
:100A50008093BF0380919B038F5F80939B030E94D1
:100A600048038091980390919903E816F90610F4D1
:100A7000D12C59C0D12CCC24C394E091C103F09166
:100A8000C2038081811107C08FEF9FEF909399037C
:100A90008093980348C0E091C103F091C2030580A0
:100AA000F681E02DC681D7818A819B81E816F906FF
:100AB00028F4909399038093980335C08E010E5FBC
:100AC0001F4FC8010E947A018C899D89892B21F0D2
:100AD000CE010C960E947A018E8990919F039817FF
:100AE00010F480939F0390E09C01220F331F220F8C
:100AF000331F220F331F820F931FB8018B529C4F5D
:100B00000E942801E0910204F09103049E898689E5
:100B1000981708F4B2CFDC2CB0CF80919D038F5F83
:100B200080939D03D12C80919C03882311F0DD24B8
:100B3000D3948D2DDF91CF911F910F91FF90EF9066
:100B4000DF90CF900895DF92EF92FF920F931F9363
:100B5000CF93DF930FB6F8940F9280919503815055
:100B6000809395038091950381115FC08091A203CA
:100B7000811133C05DC0D7011596ED91FC91169798
:100B8000C681D781CE010C960E947A018E010E5F3C
:100B90001F4FC8010E947A018E8990919F03981778
:100BA00010F480939F0390E09C01220F331F220FCB
:100BB000331F220F331F820F931FB8018B529C4F9C
:100BC0000E942801E0910204F09103049E89868925
:100BD000981768F0D0929C030AC0C0E0D0E00F2EB6
:100BE000F6EBEF2EF3E0FF2EF02DDD24D394F7018A
:100BF00080818111C0CFCD2B11F00E944803C0919C
:100C00009D03CC2351F0D1E00E9400058111D093C7
:100C10009C03C150C9F710929D0380919C038823C7
:100C200031F00E94900281E003C080E001C080E0CA
:100C30000F900FBEDF91CF911F910F91FF90EF901A
:100C4000DF900895CF93DF93EC01892B51F00E9440
:100C5000FA0460E0CE010E9467030E94A30581119F
:100C600002C00E949002DF91CF9108950DEA13E037
:100C70000F2EF5EDEF2EF3E0FF2EF02D29C00E9490
:100C8000FA04D801CC910E94A305CC2309F10FB638
:100C9000F8940F92D8011596ED91FC911697C681A4
:100CA000D781CE0102960E947A018091A2038150E1
:100CB0008093A2038091AC0381508093AC030F908A
:100CC0000FBE8F89988D0E94E300CE010E94E30041
:100CD0008091AC038111D3CFF70180818230C0F3C2
:100CE0000E949002F5CF80919503882321F081E046
:100CF00080939C03089510929C0320919F03822F60
:100D000090E0FC01EE0FFF1FEE0FFF1FEE0FFF1F25
:100D1000E80FF91FEB52FC4F3081311111C0215007
:100D2000822F90E0FC01EE0FFF1FEE0FFF1FEE0F72
:100D3000FF1FE80FF91FEB52FC4F3081332379F38B
:100D4000AC01440F551F440F551F440F551F480F4A
:100D5000591FDA01AB52BC4F1196ED91FC911297DD
:100D60000280F381E02D1296FC93EE931197485286
:100D70005C4FE417F50729F442815381FD0152834A
:100D80004183FC01EE0FFF1FEE0FFF1FEE0FFF1F51
:100D90008E0F9F1FFC01EB52FC4F0180F281E02D72
:100DA00086819781909303048093020420939F038C
:060DB0000895F894FFCF46
:0C0DB6001F034D004E0049444C45000056
:00000001FF
