:100000000C942A000C9447000C9447000C94470071
:100010000C9447000C9447000C9447000C94F60293
:100020000C9447000C9447000C9447000C94470034
:100030000C9447000C9447000C9447000C94470024
:100040000C9447000C9447000C9447000C94470014
:100050000C94470011241FBECFE5D8E0DEBFCDBF12
:1000600010E0A0E6B0E0E4EFFDE002C005900D92E4
:10007000A437B107D9F724E0A4E7B0E001C01D928E
:10008000AC30B207E1F70E9441030C94F8060C94DF
:1000900000000F931F93CF93DF93EC010E9419058B
:1000A0008091740081111DC0E9E7F0E08EE790E0D7
:1000B0009183808313821282E5E7F0E08FE193E081
:1000C0009383828311821082ADE7B0E014969C93F3
:1000D0008E9313971296FC93EE93119781E0809381
:1000E0007400209709F45FC09E012C5F3F4F239658
:1000F000CE31D34008F05AC0E0917900F0917A00F7
:10010000A9E7B0E002C0DF01FC0182819381821780
:10011000930720F4808191810097A9F7C0E0E5372B
:10012000FC0709F446C0CD91DC9111978E010C5F5C
:100130001F4F808191818D939C9382819381821B3B
:10014000930B8930910510F1BF01620F731FDB0122
:1001500013969C938E9312973383228312964D911C
:100160005C91139789E790E001C0CD01EC01A88173
:10017000B98112962D913C91139724173507A8F356
:10018000EB01B983A883DC016D937C9380916000BF
:100190009091610022813381821B930B90936100C7
:1001A0008093600008C000E010E005C000E010E0AF
:1001B00002C000E010E00E94C205C801DF91CF91AB
:1001C0001F910F9108950F931F93CF93DF93009783
:1001D00041F1EC018C01045011090E941905F8014C
:1001E00042815381A9E7B0E001C0DF01ED91FC91AC
:1001F00011972281338124173507B8F32497F983A7
:10020000E8830D931C9320916000309161008A81F6
:100210009B81820F931F90936100809360000E94E6
:10022000C205DF91CF911F910F910895FC010396B4
:10023000928381832FEF3FEF3483238396838583DB
:100240009087878310820895FC0111861086089597
:10025000CF93DF939C01FB01DC011196CD91DC91E2
:100260001297D383C2838C819D81958384838C81F3
:100270009D81DC0113967C936E9312977D836C8332
:1002800031872087F90180818F5F8083DF91CF9153
:100290000895CF93DF93EB01488159814F3F2FEFB2
:1002A000520721F4FC01A781B0850DC0DC01139633
:1002B00001C0DF011296ED91FC91139720813181ED
:1002C00042175307B0F71296ED91FC911397FB83F9
:1002D000EA83D583C483BD83AC831396DC93CE932A
:1002E000129799878887FC0120812F5F2083DF91F7
:1002F000CF910895CF93DF93FC01A085B185C28192
:10030000D381848195819D838C83C481D5818281B1
:1003100093819B838A8311968D919C911297E81704
:10032000F90731F48481958112969C938E931197ED
:10033000118610868C9181508C93DF91CF91089516
:1003400031E1FC013083319722E220833197A3E32E
:10035000A0833197608331977083319710823197F2
:1003600060E8608331971082319762E06083319753
:1003700063E06083319764E06083319765E0608378
:10038000319766E06083319767E06083319768E07A
:100390006083319769E06083319760E160833197D2
:1003A0003083319732E13083319733E130833197B5
:1003B00034E13083319735E13083319736E1308352
:1003C000319737E13083319738E13083319739E124
:1003D0003083319730E23083319731E23083319787
:1003E0002083319723E220833197408331975083D4
:1003F000319726E22083319727E22083319728E244
:100400002083319729E22083319720E3208331979D
:1004100021E32083869708951BBC8CE78ABD8BE07F
:100420008EBD89B7806189BFA0910A04B0910B0489
:10043000CD91CDBFDD91DEBFFF91EF91DF91CF91E7
:10044000BF91AF919F918F917F916F915F914F91EC
:100450003F912F911F910F91FF90EF90DF90CF90E0
:10046000BF90AF909F908F907F906F905F904F90D4
:100470003F902F901F900F900FBE0F90089581E036
:1004800008950F920FB6F8940F921F9211242F9295
:100490003F924F925F926F927F928F929F92AF9214
:1004A000BF92CF92DF92EF92FF920F931F932F9301
:1004B0003F934F935F936F937F938F939F93AF93EC
:1004C000BF93CF93DF93EF93FF93A0910A04B09172
:1004D0000B040DB60D920EB60D920E949206A091DD
:1004E0000A04B0910B04CD91CDBFDD91DEBFFF9129
:1004F000EF91DF91CF91BF91AF919F918F917F91BC
:100500006F915F914F913F912F911F910F91FF90AC
:10051000EF90DF90CF90BF90AF909F908F907F90A3
:100520006F905F904F903F902F901F900F900FBE55
:100530000F9008950F920FB6F8940F921F92112406
:100540002F923F924F925F926F927F928F929F92E3
:10055000AF92BF92CF92DF92EF92FF920F931F93D1
:100560002F933F934F935F936F937F938F939F93BB
:10057000AF93BF93CF93DF93EF93FF93A0910A04C0
:10058000B0910B040DB60D920EB60D920E941F0590
:1005900081110E949206A0910A04B0910B04CD91A2
:1005A000CDBFDD91DEBFFF91EF91DF91CF91BF9184
:1005B000AF919F918F917F916F915F914F913F91FB
:1005C0002F911F910F91FF90EF90DF90CF90BF90F0
:1005D000AF909F908F907F906F905F904F903F90E3
:1005E0002F901F900F900FBE0F9008950E949A02B7
:1005F0001895FC0121B381E090E0008002C0880FD3
:10060000991F0A94E2F7822B81BB41E050E092B33C
:100610009A01008002C0220F331F0A94E2F72927B3
:1006200022BB2FEF89E698E1215080409040E1F70E
:1006300000C00000ECCFEC0180EA9FE00E94410680
:1006400021B381E090E0088002C0880F991F0A94CE
:10065000E2F7822B81BB41E050E022B3CA0108805F
:1006600002C0880F991F0A94E2F7822782BB2FEFFE
:1006700089E698E1215080409040E1F700C00000F9
:10068000ECCFCF93DF9300D0CDB7DEB787E089837F
:1006900086E08A83E12CF12C01E09E012F5F3F4F21
:1006A00044E650E062E670E089EF92E00E94DE03EB
:1006B00002E09E012E5F3F4F44E650E068E670E0A6
:1006C0008BE193E00E94DE030E94EF04FFCFE091F4
:1006D000C903F091CA038081811107C08FEF9FEF9A
:1006E0009093A1038093A0030895E091C903F09132
:1006F000CA030580F681E02D0680F781E02D828116
:1007000093819093A1038093A0030895FF920F9388
:100710001F93CF93DF93EC01F62E0091A803109165
:10072000A90380910A0490910B0402960E947A0119
:10073000CF3F8FEFD80769F4FF2059F060910A048A
:1007400070910B046E5F7F4F8BEA93E00E9428014B
:100750002FC0C00FD11FE0910A04F0910B04D38386
:10076000C283C017D10768F460910A0470910B042A
:100770008091C7039091C8036E5F7F4F0E9449012B
:1007800017C060910A0470910B048091C903909185
:10079000CA036E5F7F4F0E9449018091A003909130
:1007A000A103C817D90720F4D093A103C093A003D5
:1007B000DF91CF911F910F91FF9008954F925F921B
:1007C0006F927F928F929F92AF92BF92CF92DF9261
:1007D000EF92FF920F931F93CF93DF934C016B0126
:1007E0005A012901CA010E9449003C01892B09F4E0
:1007F000E4C08AE290E00E944900EC01892B71F08C
:10080000788E6F8A81E0A81AB1086A0C7B1CD60129
:100810008C91898F8C91811105C018C0C3010E94F1
:10082000E300CBC0AE01465E5F4FF6013196BAE001
:10083000CB0ED11CCF012191DA012D93AD01DC014A
:100840008C91882319F0CE16DF06A1F71AA2053085
:1008500008F004E00E8B0BA31CA26E01B2E0CB0EDD
:10086000D11CC6010E942401CE010C960E942401D5
:10087000D987C88785E090E0801B91099D878C8788
:10088000DB8BCA8B1DA21EA21FA218A619A6A2014D
:10089000B401C3010E94A00199838883E114F1048B
:1008A00019F0F701D183C0830FB6F8940F928091AD
:1008B000AA038F5F8093AA0380910A0490910B048E
:1008C000892BD1F5D0930B04C0930A048091AA031D
:1008D000813009F041C00DED13E00F2EFAE0EF2E4C
:1008E000F4E0FF2EF02DC8010E941601075F1F4F94
:1008F0000E151F05C1F784ED93E00E9416018BECE5
:1009000093E00E9416018EEB93E00E94160185EBA6
:1009100093E00E9416018BEA93E00E94160184ED99
:1009200093E09093CA038093C9038BEC93E0909378
:10093000C8038093C70310C08091A60381110CC027
:10094000E0910A04F0910B0496898E89891720F0B2
:10095000D0930B04C0930A048091A2038F5F80930D
:10096000A2038E899091A703981710F48093A70390
:1009700090E09C01220F331F220F331F220F331FE1
:10098000820F931FB60183529C4F0E9428010F9043
:100990000FBE8091A603882361F0E0910A04F091D4
:1009A0000B0496898E89981730F40E94410281E0E9
:1009B00005C081E003C081E001C08FEFDF91CF91DE
:1009C0001F910F91FF90EF90DF90CF90BF90AF906D
:1009D0009F908F907F906F905F904F900895EF92CF
:1009E000FF920F930F2EFEE9EF2EF3E0FF2EF02D76
:1009F00000E020E030E048EC50E06FE670E085E594
:100A000096E00E94DE03813081F4F8948FEF9FEF2F
:100A10009093A1038093A00381E08093A60310929A
:100A2000A9031092A8030E940C020F91FF90EF906F
:100A3000089580919D038F5F80939D030895CF92C9
:100A4000DF92EF92FF920F931F93CF93DF938091EA
:100A50009D03811181C0E090A803F090A9038FEF5E
:100A6000E81AF80AF092A903E092A803E114F1044D
:100A7000B9F48091C9039091CA032091C7033091C2
:100A8000C8033093CA032093C9039093C80380938B
:100A9000C7038091A3038F5F8093A3030E94670322
:100AA0008091A0039091A103E816F90610F4D12CCF
:100AB00059C0D12CCC24C394E091C903F091CA034E
:100AC0008081811107C08FEF9FEF9093A1038093E6
:100AD000A00348C0E091C903F091CA030580F681E4
:100AE000E02DC681D7818A819B81E816F90628F41A
:100AF0009093A1038093A00335C08E010E5F1F4F1A
:100B0000C8010E947A018C899D89892B21F0CE0130
:100B10000C960E947A018E899091A703981710F481
:100B20008093A70390E09C01220F331F220F331FF5
:100B3000220F331F820F931FB80183529C4F0E94D4
:100B40002801E0910A04F0910B049E898689981788
:100B500008F4B2CFDC2CB0CF8091A5038F5F8093D7
:100B6000A503D12C8091A403882311F0DD24D39414
:100B70008D2DDF91CF911F910F91FF90EF90DF901E
:100B8000CF900895DF92EF92FF920F931F93CF9330
:100B9000DF930FB6F8940F9280919D03815080935C
:100BA0009D0380919D0381115FC08091AA038111F3
:100BB00033C05DC0D7011596ED91FC911697C681A3
:100BC000D781CE010C960E947A018E010E5F1F4FD5
:100BD000C8010E947A018E899091A703981710F49A
:100BE0008093A70390E09C01220F331F220F331F35
:100BF000220F331F820F931FB80183529C4F0E9414
:100C00002801E0910A04F0910B049E8986899817C7
:100C100068F0D092A4030AC0C0E0D0E00F2EFEEB33
:100C2000EF2EF3E0FF2EF02DDD24D394F701808129
:100C30008111C0CFCD2B11F00E946703C091A50395
:100C4000CC2351F0D1E00E941F058111D093A40361
:100C5000C150C9F71092A5038091A403882331F0F5
:100C60000E94410281E003C080E001C080E00F905B
:100C70000FBEDF91CF911F910F91FF90EF90DF900A
:100C80000895CF93DF93EC01892B51F00E94190551
:100C900060E0CE010E9486030E94C205811102C05D
:100CA0000E944102DF91CF91089505EB13E00F2ED2
:100CB000FDEDEF2EF3E0FF2EF02D29C00E94190567
:100CC000D801CC910E94C205CC2309F10FB6F8944B
:100CD0000F92D8011596ED91FC911697C681D78198
:100CE000CE0102960E947A018091AA0381508093DE
:100CF000AA038091B40381508093B4030F900FBE78
:100D00008F89988D0E94E300CE010E94E3008091BC
:100D1000B4038111D3CFF70180818230C0F30E94E8
:100D20004102F5CF80919D03882321F081E08093DB
:100D3000A40308951092A4032091A703822F90E0AA
:100D4000FC01EE0FFF1FEE0FFF1FEE0FFF1FE80F5E
:100D5000F91FE352FC4F3081311111C02150822F15
:100D600090E0FC01EE0FFF1FEE0FFF1FEE0FFF1FC5
:100D7000E80FF91FE352FC4F3081332379F3AC01C4
:100D8000440F551F440F551F440F551F480F591F3F
:100D9000DA01A352BC4F1196ED91FC91129702809B
:100DA000F381E02D1296FC93EE93119740525C4F25
:100DB000E417F50729F442815381FD0152834183F1
:100DC000FC01EE0FFF1FEE0FFF1FEE0FFF1F8E0F38
:100DD0009F1FFC01E352FC4F0180F281E02D8681D0
:100DE000978190930B0480930A042093A70308959E
:040DF000F894FFCFA5
:100DF4001F0341686D6564005368696E6479004936
:040E0400444C450015
:00000001FF
